:020000040800F2
:100000000050002051130008E1120008E712000818
:10001000ED120008F3120008F912000800000000B9
:10002000000000000000000000000000FF120008B7
:100030000B1300080000000017130008231300082A
:1000400099130008991300089913000899130008E0
:1000500099130008991300089913000899130008D0
:100060009913000899130008991300083113000828
:1000700099130008991300089913000899130008B0
:1000800099130008991300089913000899130008A0
:100090009913000899130008991300089913000890
:1000A0009913000899130008991300089913000880
:1000B0009913000899130008991300089913000870
:1000C0009913000899130008991300089913000860
:1000D0009913000899130008991300089913000850
:1000E00099130008991300089913000800000000F4
:1000F0000000000000000000000000000000000000
:0C01000000000000000000005FF808F1A3
:1001100010B5054C237833B9044B13B10448AFF341
:1001200000800123237010BD180000200000000093
:10013000E847000808B5034B1BB103490348AFF378
:10014000008008BD000000001C000020E8470008F7
:1001500081F0004102E000BF83F0004330B54FEA78
:1001600041044FEA430594EA050F08BF90EA020FE5
:100170001FBF54EA000C55EA020C7FEA645C7FEA78
:10018000655C00F0E2804FEA5454D4EB5555B8BF9B
:100190006D420CDD2C4480EA020281EA030382EA0C
:1001A000000083EA010180EA020281EA0303362D9E
:1001B00088BF30BD11F0004F4FEA01314FF4801C71
:1001C0004CEA113102D0404261EB410113F0004F83
:1001D0004FEA03334CEA133302D0524263EB43033A
:1001E00094EA050F00F0A780A4F10104D5F1200ED8
:1001F0000DDB02FA0EFC22FA05F2801841F1000133
:1002000003FA0EF2801843FA05F359410EE0A5F106
:1002100020050EF1200E012A03FA0EFC28BF4CF037
:10022000020C43FA05F3C01851EBE37101F00045ED
:1002300007D54FF0000EDCF1000C7EEB00006EEBFA
:100240000101B1F5801F1BD3B1F5001F0CD3490884
:100250005FEA30004FEA3C0C04F101044FEA4452DB
:1002600012F5800F80F09A80BCF1004F08BF5FEA62
:10027000500C50F1000041EB045141EA050130BD42
:100280005FEA4C0C404141EB0101013C28BFB1F554
:10029000801FE9D291F0000F04BF01460020B1FA9F
:1002A00081F308BF2033A3F10B03B3F120020CDA72
:1002B0000C3208DD02F1140CC2F10C0201FA0CF050
:1002C00021FA02F10CE002F11402D8BFC2F1200CB5
:1002D00001FA02F120FA0CFCDCBF41EA0C0190406B
:1002E000E41AA2BF01EB0451294330BD6FEA0404B4
:1002F0001F3C1CDA0C340EDC04F11404C4F120029F
:1003000020FA04F001FA02F340EA030021FA04F3B0
:1003100045EA030130BDC4F10C04C4F1200220FA07
:1003200002F001FA04F340EA0300294630BD21FA45
:1003300004F0294630BD94F0000F83F4801306BF0B
:1003400081F480110134013D4EE77FEA645C18BFFF
:100350007FEA655C29D094EA050F08BF90EA020F96
:1003600005D054EA000C04BF1946104630BD91EA8E
:10037000030F1EBF0021002030BD5FEA545C05D191
:100380004000494128BF41F0004130BD14F58004D0
:100390003CBF01F5801130BD01F0004545F0FE4144
:1003A00041F470014FF0000030BD7FEA645C1ABF79
:1003B000194610467FEA655C1CBF0B46024650EAB0
:1003C000013406BF52EA033591EA030F41F40021DC
:1003D00030BD00BF90F0000F04BF0021704730B562
:1003E0004FF4806404F132044FF000054FF0000137
:1003F00050E700BF90F0000F04BF0021704730B5F8
:100400004FF4806404F1320410F0004548BF4042CC
:100410004FF000013EE700BF42004FEAE2014FEA21
:1004200031014FEA02701FBF12F07F4393F07F4FFC
:1004300081F06051704732F07F4208BF704793F0FF
:100440007F4F04BF41F40021704730B54FF4607412
:1004500001F0004521F000411CE700BF50EA010215
:1004600008BF704730B54FF000050AE050EA0102BE
:1004700008BF704730B511F0004502D5404261EB2E
:1004800041014FF4806404F132045FEA915C3FF46F
:10049000D8AE4FF003025FEADC0C18BF03325FEA0C
:1004A000DC0C18BF033202EBDC02C2F1200300FABD
:1004B00003FC20FA02F001FA03FE40EA0E0021FAE2
:1004C00002F11444BDE600BF70B54FF0FF0C4CF4D0
:1004D000E06C1CEA11541DBF1CEA135594EA0C0F82
:1004E00095EA0C0F00F0DEF82C4481EA030621EABD
:1004F0004C5123EA4C5350EA013518BF52EA0335F8
:1005000041F4801143F4801338D0A0FB02CE4FF0A9
:100510000005E1FB02E506F00042E0FB03E54FF0D9
:100520000006E1FB03569CF0000F18BF4EF0010ED1
:10053000A4F1FF04B6F5007F64F5407404D25FEACD
:100540004E0E6D4146EB060642EAC62141EA555180
:100550004FEAC52040EA5E504FEACE2EB4F1FD0CC2
:1005600088BFBCF5E06F1ED8BEF1004F08BF5FEA40
:10057000500E50F1000041EB045170BD06F00046F2
:1005800046EA010140EA020081EA0301B4EB5C049F
:10059000C2BFD4EB0C0541EA045170BD41F4801197
:1005A0004FF0000E013C00F3AB8014F1360FDEBFBC
:1005B000002001F0004170BDC4F10004203C35DA98
:1005C0000C341BDC04F11404C4F1200500FA05F31B
:1005D00020FA04F001FA05F240EA020001F00042BC
:1005E00021F0004110EBD37021FA04F642EB060132
:1005F0005EEA430E08BF20EAD37070BDC4F10C045C
:10060000C4F1200500FA04F320FA05F001FA04F21F
:1006100040EA020001F0004110EBD37041F100010B
:100620005EEA430E08BF20EAD37070BDC4F1200516
:1006300000FA05F24EEA020E20FA04F301FA05F27E
:1006400043EA020321FA04F001F0004121FA04F226
:1006500020EA020000EBD3705EEA430E08BF20EAF6
:10066000D37070BD94F0000F0FD101F00046400030
:1006700041EB010111F4801F08BF013CF7D041EAB2
:10068000060195F0000F18BF704703F000465200B6
:1006900043EB030313F4801F08BF013DF7D043EA87
:1006A0000603704794EA0C0F0CEA135518BF95EA3D
:1006B0000C0F0CD050EA410618BF52EA4306D1D1C4
:1006C00081EA030101F000414FF0000070BD50EAE3
:1006D000410606BF1046194652EA430619D094EA6D
:1006E0000C0F02D150EA013613D195EA0C0F05D157
:1006F00052EA03361CBF104619460AD181EA0301AB
:1007000001F0004141F0FE4141F470014FF0000062
:1007100070BD41F0FE4141F4780170BD70B54FF0FD
:10072000FF0C4CF4E06C1CEA11541DBF1CEA13557D
:1007300094EA0C0F95EA0C0F00F0A7F8A4EB05045F
:1007400081EA030E52EA03354FEA013100F0888056
:100750004FEA03334FF0805545EA131343EA12631F
:100760004FEA022245EA111545EA10654FEA0026D4
:100770000EF000419D4208BF964244F1FD0404F58D
:10078000407402D25B084FEA3202B61A65EB0305E9
:100790005B084FEA32024FF480104FF4002CB6EBA6
:1007A000020E75EB030E22BFB61A754640EA0C0026
:1007B0005B084FEA3202B6EB020E75EB030E22BF66
:1007C000B61A754640EA5C005B084FEA3202B6EBA7
:1007D000020E75EB030E22BFB61A754640EA9C0066
:1007E0005B084FEA3202B6EB020E75EB030E22BF36
:1007F000B61A754640EADC0055EA060E18D04FEAF4
:10080000051545EA16754FEA06164FEAC30343EA93
:1008100052734FEAC2025FEA1C1CC0D111F4801F60
:100820000BD141EA00014FF000004FF0004CB6E759
:1008300011F4801F04BF01430020B4F1FD0C88BFF8
:10084000BCF5E06F3FF6AFAEB5EB030C04BFB6EB03
:10085000020C5FEA500C50F1000041EB045170BDF6
:100860000EF0004E4EEA113114EB5C04C2BFD4EB23
:100870000C0541EA045170BD41F480114FF0000EA7
:10088000013C90E645EA060E8DE60CEA135594EA23
:100890000C0F08BF95EA0C0F3FF43BAF94EA0C0F26
:1008A0000AD150EA01347FF434AF95EA0C0F7FF49B
:1008B00025AF104619462CE795EA0C0F06D152EAEF
:1008C00003353FF4FDAE1046194622E750EA4106D3
:1008D00018BF52EA43067FF4C5AE50EA41047FF4E4
:1008E0000DAF52EA43057FF4EBAE12E74FF0FF3C49
:1008F00006E000BF4FF0010C02E000BF4FF0010C1A
:100900004DF804CD4FEA410C7FEA6C5C4FEA430C92
:1009100018BF7FEA6C5C1BD001B050EA410C0CBFE1
:1009200052EA430C91EA030F02BF90EA020F002043
:10093000704710F1000F91EA030F58BF994208BFAA
:1009400090422CBFD8176FEAE37040F00100704767
:100950004FEA410C7FEA6C5C02D150EA013C07D1BE
:100960004FEA430C7FEA6C5CD6D152EA033CD3D009
:100970005DF8040B704700BF8446104662468C4603
:100980001946634600E000BF01B5FFF7B7FF002836
:1009900048BF10F1000F01BD4DF808EDFFF7F4FF5F
:1009A0000CBF012000205DF808FB00BF4DF808EDEA
:1009B000FFF7EAFF34BF012000205DF808FB00BF0D
:1009C0004DF808EDFFF7E0FF94BF012000205DF82F
:1009D00008FB00BF4DF808EDFFF7CEFF94BF0120E4
:1009E00000205DF808FB00BF4DF808EDFFF7C4FFDD
:1009F00034BF012000205DF808FB00BF4A0011D27F
:100A000012F5001211D20DD56FF47873B3EB625268
:100A10000ED44FEAC12343F0004343EA505323FA74
:100A200002F070474FF00000704750EA013002D1E9
:100A30004FF0FF3070474FF00000704780B487B030
:100A400000AF786000237B610223FB6000233B61E1
:100A50000BE03B695B007A6813441B881A467B698C
:100A600013447B613B6901333B613A69FB689A42FD
:100A7000EFD37A69FB68B2FBF3F37B817B8918467D
:100A80001C37BD4680BC704780B586B000AF0346BA
:100A9000FB800123FB826423BB8264237B827B8AED
:100AA000412292FBF3F31846FFF7A4FC12A3D3E90B
:100AB0000023FFF709FD02460B4610461946FFF7D3
:100AC0009DFF03463B82FB883A8A02FB03F31846EC
:100AD000FFF790FC0AA3D3E90023FFF71FFE0246AD
:100AE0000B4610461946FFF789FF0346FB81FB8939
:100AF00018461837BD4680BD6666666666660A405B
:100B0000CDCCCCCCCC4C394080B588B008AF00F00F
:100B100045FC00F067F800F02BFA00F00BFA00F04B
:100B2000FDF800F02FF900F0B9F800F0ADF9244815
:100B300001F058F80A222349214800F069FD0C21F0
:100B4000214802F091FC0021204802F087FD042199
:100B50001E4802F083FD322000F02CFA0023079398
:100B6000012306934FF000024FF00003CDE9042368
:100B70004FF000024FF00003CDE902234FF00002D6
:100B80004FF00003CDE90023114B124A12491348DC
:100B900003F01EFB0121114803F04CFC64210F48B7
:100BA00003F0BAFD4FF000020D4BCDE900234FF0EA
:100BB00000024FF00003094803F05AFCFEE700BFB3
:100BC000A8000020E80100208C0100204401002042
:100BD00000000020E0010020D801002038000020A3
:100BE0000040644080B594B000AF07F1280328228C
:100BF0000021184603F0F0FD07F1140300221A60EB
:100C00005A609A60DA601A613B1D00221A605A60CD
:100C10009A60DA600123BB624FF48033FB620023E9
:100C20003B630123BB6302237B644FF48033BB64CB
:100C30004FF4E013FB6407F12803184601F0FAFDB6
:100C40000346002B01D000F005FA0F237B6102233D
:100C5000BB610023FB614FF480633B6200237B6236
:100C600007F114030221184602F066F80346002B30
:100C700001D000F0EFF902237B604FF40043FB60EA
:100C80003B1D184602F0DCF90346002B01D000F0B2
:100C9000E1F900BF5037BD4680BD000080B584B08B
:100CA00000AF3B1D00221A605A609A60194B1A4A25
:100CB0001A60184B4FF480729A60164B00221A7318
:100CC000144B00221A75134B4FF42022DA61114B9A
:100CD00000225A600F4B01221A610E4800F0C0FB3F
:100CE0000346002B01D000F0B5F904237B600123FB
:100CF000BB600023FB603B1D1946064800F078FDF1
:100D00000346002B01D000F0A5F900BF1037BD4607
:100D100080BD00BFA80000200024014080B500AFC6
:100D2000164B174A1A60154B10225A60134B0022BB
:100D30009A60124B0022DA60104B00221A610F4BAE
:100D400000225A610D4B00221A760C4B00225A7673
:100D50000A4B00229A76094B0022DA76074B0022D2
:100D60001A77064B00225A77044800F0E7FF034643
:100D7000002B01D000F06EF900BF80BD1C010020E7
:100D80000064004080B58EB000AF07F12803002258
:100D90001A605A609A60DA6007F1200300221A6034
:100DA0005A603B1D00221A605A609A60DA601A612C
:100DB0005A619A61334B4FF080421A60314B0022E6
:100DC0005A60304B20229A602E4B40F26712DA6054
:100DD0002C4B00221A612B4B00229A61294802F009
:100DE000A5FA0346002B01D000F034F94FF48053EC
:100DF000BB6207F128031946224802F0E7FD0346CB
:100E0000002B01D000F026F91E4802F0CFFB03466C
:100E1000002B01D000F01EF900233B6200237B620F
:100E200007F120031946174803F038F90346002B51
:100E300001D000F00FF960237B600023BB60022328
:100E4000FB6000237B613B1D002219460D4802F028
:100E5000FFFC0346002B01D000F0FCF80023FB60F0
:100E60003B1D04221946074802F0F2FC0346002B02
:100E700001D000F0EFF8034800F002FA00BF383765
:100E8000BD4680BD4401002080B58AB000AF07F1A7
:100E9000200300221A605A603B1D00221A605A602B
:100EA0009A60DA601A615A619A61204B204A1A608E
:100EB0001E4B00225A601D4B00229A601B4B40F2D1
:100EC0006712DA60194B00221A61184B00229A61EE
:100ED000164802F07AFA0346002B01D000F0BAF867
:100EE00000233B6200237B6207F1200319460F4871
:100EF00003F0D4F80346002B01D000F0ABF8302308
:100F00007B600023BB600023FB6000237B613B1DF3
:100F10000C221946054802F043FC0346002B01D081
:100F200000F098F800BF2837BD4680BD8C01002036
:100F30000008004080B582B000AF0C4B5B690B4AE3
:100F400043F001035361094B5B6903F001037B60CC
:100F50007B68002202210B2001F0C3F80B2001F076
:100F6000DCF800BF0837BD4680BD00BF001002405E
:100F700080B483B000AF0E4B9B690D4A43F0200351
:100F800093610B4B9B6903F020037B607B68084BEC
:100F90009B69074A43F004039361054B9B6903F087
:100FA00004033B603B6800BF0C37BD4680BC704704
:100FB0000010024080B483B000AF0346FB804FF0C6
:100FC0008042FB8893634FF08043DA6A4FF080439E
:100FD0009B6B4FF08041D31A4B6300BF0C37BD466B
:100FE00080BC704780B584B000AF78607B681B68B8
:100FF000134A934220D11348FFF720FD0346FB819B
:10100000FB891846FFF740FD03461846FFF7E2F953
:1010100002460B460C49C1E900230C4803F020F9B5
:101020000B4BD3E9002310461946FFF7E7FC0346B4
:101030009BB21846FFF7BEFF00BF1037BD4680BD0C
:1010400000240140E8010020D801002038000020E1
:10105000E001002080B400AF72B600BFFEE70000E0
:1010600080B483B000AF0E4B9B690D4A43F001037F
:1010700093610B4B9B6903F001037B607B68084B1A
:10108000DB69074A43F08053D361054BDB6903F00A
:1010900080533B603B6800BF0C37BD4680BC704747
:1010A0000010024080B588B000AF786007F11003EF
:1010B00000221A605A609A60DA607B681B68284ACE
:1010C000934249D1274B9B69264A43F400739361AD
:1010D000244B9B6903F40073FB60FB68214B9B6905
:1010E000204A43F0040393611E4B9B6903F0040301
:1010F000BB60BB6810233B6103237B6107F11003D6
:101100001946194801F012FA184B194A1A60174B80
:1011100000225A60154B00229A60144B8022DA603C
:10112000124B4FF480721A61104B4FF480625A6177
:101130000E4B20229A610D4B0022DA610B4801F020
:1011400007F80346002B01D0FFF784FF7B68074AAE
:101150001A62064A7B68536200BF2037BD4680BDD5
:10116000002401400010024000080140D800002087
:101170000800024080B588B000AF786007F1100326
:1011800000221A605A609A60DA607B681B681C4A09
:10119000934231D11B4BDB691A4A43F00073D36190
:1011A000184BDB6903F00073FB60FB68154B9B6910
:1011B000144A43F004039361124B9B6903F0040348
:1011C000BB60BB684FF400633B6100237B6100237D
:1011D000BB6107F1100319460B4801F0A7F94FF462
:1011E00080533B6102237B610323FB6107F1100302
:1011F0001946054801F09AF900BF2037BD4680BD69
:1012000000640040001002400008014080B485B036
:1012100000AF78607B681B68B3F1804F0BD1084B3F
:10122000DB69074A43F00103D361054BDB6903F037
:101230000103FB60FB6800BF1437BD4680BC7047EC
:101240000010024080B485B000AF78607B681B68F6
:10125000094A93420BD1094BDB69084A43F0040366
:10126000D361064BDB6903F00403FB60FB6800BF3E
:101270001437BD4680BC7047000800400010024093
:1012800080B588B000AF786007F1100300221A60C3
:101290005A609A60DA607B681B68B3F1804F17D19F
:1012A0000D4B9B690C4A43F0040393610A4B9B6905
:1012B00003F00403FB60FB6803233B6102237B61B3
:1012C0000223FB6107F110031946044801F02EF9CF
:1012D00000BF2037BD4680BD00100240000801401D
:1012E00080B400AFFEE780B400AFFEE780B400AF8B
:1012F000FEE780B400AFFEE780B400AFFEE780B445
:1013000000AF00BFBD4680BC704780B400AF00BFD7
:10131000BD4680BC704780B400AF00BFBD4680BCF6
:10132000704780B500AF00F07FF800BF80BD0000BF
:1013300080B500AF024800F0C5FF00BF80BD00BF10
:10134000D800002080B400AF00BFBD4680BC70470D
:101350000C480D490D4A002302E0D458C450043310
:10136000C4188C42F9D30A4A0A4C002301E01360E6
:101370000432A242FBD3FFF7E5FF03F009FAFFF7BF
:10138000C3FB704700000020140000204048000804
:101390001800002000020020FEE7000080B500AF2A
:1013A000084B1B68074A43F010031360032000F04A
:1013B0008DFE0F2000F008F8FFF752FE00231846BC
:1013C00080BD00BF0020024080B582B000AF7860D1
:1013D000124B1A68124B1B7819464FF47A73B3FB01
:1013E000F1F3B2FBF3F3184600F0A5FE0346002B21
:1013F00001D001230EE07B680F2B0AD80022796808
:101400004FF0FF3000F06DFE064A7B68136000234A
:1014100000E0012318460837BD4680BD08000020C3
:10142000100000200C00002080B400AF054B1B789A
:101430001A46054B1B681344034A136000BFBD46A0
:1014400080BC704710000020FC01002080B400AF79
:10145000024B1B681846BD4680BC7047FC0100204B
:1014600080B586B000AF78600023FB7500233B6138
:101470000023BB600023FB607B68002B01D10123AC
:10148000BEE07B689B68002B7B689B6A002B09D1C0
:101490007B680022DA627B68002283F82420786867
:1014A000FFF700FE786800F0F5FA0346FB757B68ED
:1014B0009B6A03F01003002B40F09980FB7D002B0A
:1014C00040F095807B689B6A23F4885323F00203E5
:1014D00043F002027B689A627B685A687B68DB692A
:1014E0001A437B681B7B5B001343BA681343BB60E2
:1014F0007B689B68B3F5807F03D07B689B68012B7A
:1015000002D14FF4807300E000233A6913433B613A
:101510007B681B7D012B19D17B681B7B002B09D1BC
:101520007B689B69013B5A033B69134343F40063A7
:101530003B610BE07B689B6A43F020027B689A6208
:101540007B68DB6A43F001027B68DA627B681B68B8
:101550005B6823F469417B681B683A690A435A60F7
:101560007B681B689A68284B13407A681268B968D0
:101570000B4393607B689B68B3F5807F03D07B68E7
:101580009B68012B04D17B681B69013B1B05FB6039
:101590007B681B68DB6A23F470017B681B68FA6850
:1015A0000A43DA627B681B689A68184B1340BA6872
:1015B0009A420BD17B680022DA627B689B6A23F037
:1015C000030343F001027B689A6218E07B689B6A20
:1015D00023F0120343F010027B689A627B68DB6A97
:1015E00043F001027B68DA620123FB7507E07B6848
:1015F0009B6A43F010027B689A620123FB75FB7DB6
:1016000018461837BD4680BDFDF7E1FFFE0E1FFFEF
:1016100080B586B000AFF860B9607A600023FB75D2
:10162000FB681B68644A934204D0FB681B68634AEA
:10163000934206D1604B5B6803F47023002B40F0AB
:10164000B380FB6893F82430012B01D10223AEE074
:10165000FB68012283F82420F86800F0C1F90346F2
:10166000FB75FB7D002B40F09A80FB689B6A23F49E
:10167000706323F0010343F48072FB689A62FB6895
:101680001B684E4A934205D14B4B5B6803F47023B1
:10169000002B15D1FB689B6A23F48012FB689A62C9
:1016A000FB681B685B6803F48063002B26D0FB6833
:1016B0009B6A23F4405343F48052FB689A621DE016
:1016C000FB689B6A43F48012FB689A62FB681B68A4
:1016D000394A934204D0FB681B68384A93420DD1C3
:1016E000354B5B6803F48063002B07D0FB689B6A73
:1016F00023F4405343F48052FB689A62FB689B6A70
:1017000003F48053002B06D0FB68DB6A23F006024B
:10171000FB68DA6202E0FB680022DA62FB68002202
:1017200083F82420FB681B6A254A9A62FB681B6ABF
:10173000244ADA62FB681B6A234A1A63FB681B6847
:101740006FF002021A60FB681B689A68FB681B68EE
:1017500042F480729A60FB68186AFB681B684C331D
:101760001946BA687B6800F04DFDFB681B689B68F2
:1017700003F46023B3F5602F08D1FB681B689A68F7
:10178000FB681B6842F4A0029A600FE0FB681B68CC
:101790009A68FB681B6842F480129A6006E0FB6856
:1017A000002283F8242001E00123FB75FB7D18460D
:1017B0001837BD4680BD00BF00240140002801400D
:1017C000171B0008931B0008AF1B000880B483B0F0
:1017D00000AF786000BF0C37BD4680BC704780B456
:1017E00083B000AF786000BF0C37BD4680BC704747
:1017F00080B485B000AF786039600023FB730023AC
:10180000BB607B6893F82430012B01D10223DCE01C
:101810007B68012283F824203B685B68062B1CD878
:101820007B681B68596B3B685A6813469B001344DE
:10183000053B1F2202FA03F3DB4319403B6818689B
:101840003B685A6813469B001344053B00FA03F2B9
:101850007B681B680A435A633CE03B685B680C2B5F
:101860001CD87B681B68196B3B685A6813469B0041
:101870001344233B1F2202FA03F3DB4319403B6866
:1018800018683B685A6813469B001344233B00FAD0
:1018900003F27B681B680A431A631BE07B681B68C2
:1018A000D96A3B685A6813469B001344413B1F2288
:1018B00002FA03F3DB4319403B6818683B685A6837
:1018C00013469B001344413B00FA03F27B681B68FC
:1018D0000A43DA623B681B68092B1CD97B681B68CA
:1018E000D9683B681A6813465B0013441E3B072205
:1018F00002FA03F3DB4319403B6898683B681A68B7
:1019000013465B0013441E3B00FA03F27B681B681E
:101910000A43DA6019E07B681B6819693B681A683A
:1019200013465B001344072202FA03F3DB4319401A
:101930003B6898683B681A6813465B00134400FADA
:1019400003F27B681B680A431A613B681B68102B13
:1019500003D03B681B68112B32D17B681B681D4A82
:10196000934225D17B681B689B6803F40003002B1E
:1019700026D17B681B689A687B681B6842F400026A
:101980009A603B681B68102B1AD1134B1B68134AD3
:10199000A2FB03239A0C13469B0013445B00BB601D
:1019A00002E0BB68013BBB60BB68002BF9D107E0DC
:1019B0007B689B6A43F020027B689A620123FB7379
:1019C0007B68002283F82420FB7B18461437BD4631
:1019D00080BC7047002401400800002083DE1B43C8
:1019E00080B584B000AF78600023FB600023BB604B
:1019F0007B681B689B6803F00103012B40D07B6868
:101A00001B689A687B681B6842F001029A601F4B52
:101A10001B681F4AA2FB03239B0CBB6002E0BB6850
:101A2000013BBB60BB68002BF9D1FFF70FFDF860ED
:101A30001FE0FFF70BFD0246FB68D31A022B18D9F3
:101A40007B681B689B6803F00103012B11D07B6846
:101A50009B6A43F010027B689A627B68DB6A43F002
:101A600001027B68DA627B68002283F8242001236C
:101A700007E07B681B689B6803F00103012BD8D14A
:101A8000002318461037BD4680BD00BF0800002067
:101A900083DE1B4380B584B000AF78600023FB6019
:101AA0007B681B689B6803F00103012B2ED17B68C8
:101AB0001B689A687B681B6822F001029A60FFF736
:101AC000C5FCF8601BE0FFF7C1FC0246FB68D31AB7
:101AD000022B14D97B681B689B6803F00103012B60
:101AE0000DD17B689B6A43F010027B689A627B6829
:101AF000DB6A43F001027B68DA62012307E07B685E
:101B00001B689B6803F00103012BDCD000231846FF
:101B10001037BD4680BD80B584B000AF78607B686B
:101B20005B6AFB60FB689B6A03F05003002B27D1C4
:101B3000FB689B6A43F40072FB689A62FB681B684F
:101B40009B6803F46023B3F5602F15D1FB681B7B02
:101B5000002B11D1FB689B6A23F48072FB689A62A8
:101B6000FB689B6A03F48053002B05D1FB689B6ADA
:101B700043F00102FB689A62F868FFF733FA04E069
:101B8000FB681B6A1B6B7868984700BF1037BD461F
:101B900080BD80B584B000AF78607B685B6AFB6015
:101BA000F868FFF713FE00BF1037BD4680BD80B553
:101BB00084B000AF78607B685B6AFB60FB689B6AFF
:101BC00043F04002FB689A62FB68DB6A43F0040260
:101BD000FB68DA62F868FFF702FE00BF1037BD4607
:101BE00080BD000090B587B000AF78600023FB7522
:101BF0000023FB607B6893F82430012B01D1022382
:101C000095E07B68012283F824207868FFF742FF83
:101C10000346FB75FB7D002B40F084807B689B6A4C
:101C200023F4885323F0020343F002027B689A6294
:101C3000414B1C68022001F0B9FA0346B4FBF3F3F0
:101C40005B00FB6002E0FB68013BFB60FB68002B74
:101C5000F9D17868FFF7C4FE7B681B689A687B68D7
:101C60001B6842F008029A60FFF7F0FB38611BE046
:101C7000FFF7ECFB02463B69D31A0A2B14D97B68A9
:101C80001B689B6803F00803002B0DD07B689B6AE0
:101C900023F0120343F010027B689A627B680022F3
:101CA00083F82420012342E07B681B689B6803F0D3
:101CB0000803002BDCD17B681B689A687B681B6873
:101CC00042F004029A60FFF7C1FB38611BE0FFF7A6
:101CD000BDFB02463B69D31A0A2B14D97B681B68EB
:101CE0009B6803F00403002B0DD07B689B6A23F0F4
:101CF000120343F010027B689A627B68002283F82B
:101D00002420012313E07B681B689B6803F0040315
:101D1000002BDCD17B689B6A23F0030343F00102B4
:101D20007B689A627B68002283F82420FB7D18463A
:101D30001C37BD4690BD00BF0800002080B584B0B0
:101D400000AF78607B68002B01D10123EDE07B6858
:101D500093F82030DBB2002B02D17868FFF70AFA43
:101D60007B681B681A687B681B6842F001021A6076
:101D7000FFF76CFBF86012E0FFF768FB0246FB68B8
:101D8000D31A0A2B0BD97B685B6A43F400327B6859
:101D90005A627B68052283F820200123C5E07B6816
:101DA0001B685B6803F00103002BE5D07B681B68B0
:101DB0001A687B681B6822F002021A60FFF746FB74
:101DC000F86012E0FFF742FB0246FB68D31A0A2BC9
:101DD0000BD97B685B6A43F400327B685A627B688C
:101DE000052283F8202001239FE07B681B685B6845
:101DF00003F00203002BE5D17B681B7E012B08D189
:101E00007B681B681A687B681B6842F080021A6056
:101E100007E07B681B681A687B681B6822F08002F9
:101E20001A607B685B7E012B08D17B681B681A688F
:101E30007B681B6842F040021A6007E07B681B6801
:101E40001A687B681B6822F040021A607B689B7EE0
:101E5000012B08D17B681B681A687B681B6842F0FD
:101E600020021A6007E07B681B681A687B681B68A1
:101E700022F020021A607B68DB7E012B08D17B6890
:101E80001B681A687B681B6822F010021A6007E062
:101E90007B681B681A687B681B6842F010021A6036
:101EA0007B681B7F012B08D17B681B681A687B68E5
:101EB0001B6842F008021A6007E07B681B681A681A
:101EC0007B681B6822F008021A607B685B7F012B2D
:101ED00008D17B681B681A687B681B6842F00402A3
:101EE0001A6007E07B681B681A687B681B6822F031
:101EF00004021A607B689A687B68DB681A437B6817
:101F00001B691A437B685B6942EA03017B685B6873
:101F10005A1E7B681B680A43DA617B6800225A629A
:101F20007B68012283F82020002318461037BD4625
:101F300080BD000080B485B000AF78607B6803F09E
:101F40000703FB600C4BDB68BB60BA684FF6FF030E
:101F50001340BB60FB681A02BB68134343F0BF63C6
:101F600043F40033BB60044ABB68D36000BF14373E
:101F7000BD4680BC704700BF00ED00E080B400AFFC
:101F8000044BDB681B0A03F007031846BD4680BC00
:101F9000704700BF00ED00E080B483B000AF03469F
:101FA000FB7197F90730002B0BDBFB7903F01F0265
:101FB000064997F907305B09012000FA02F241F85F
:101FC000232000BF0C37BD4680BC704700E100E015
:101FD00080B483B000AF03463960FB7197F90730D6
:101FE000002B0ADB3B68DAB20C4997F90730120183
:101FF000D2B20B4483F800230AE03B68DAB2084906
:10200000FB7903F00F03043B1201D2B20B441A76A2
:1020100000BF0C37BD4680BC704700BF00E100E048
:1020200000ED00E080B489B000AFF860B9607A607C
:10203000FB6803F00703FB61FB69C3F10703042B93
:1020400028BF0423BB61FB690433062B02D9FB695B
:10205000033B00E000237B614FF0FF32BB6902FAD3
:1020600003F3DA43BB681A407B699A404FF0FF31B3
:102070007B6901FA03F3D9437B680B40134318468D
:102080002437BD4680BC704780B582B000AF786011
:102090007B68013BB3F1807F01D301230FE00A4A43
:1020A0007B68013B53600F214FF0FF30FFF790FF3B
:1020B000054B00229A60044B07221A600023184641
:1020C0000837BD4680BD00BF10E000E080B582B09B
:1020D00000AF78607868FFF72DFF00BF0837BD4676
:1020E00080BD80B586B000AF0346B9607A60FB73EF
:1020F00000237B61FFF742FF78617A68B9687869ED
:10210000FFF790FF024697F90F3011461846FFF788
:102110005FFF00BF1837BD4680BD80B582B000AFFD
:102120000346FB7197F907301846FFF735FF00BFEC
:102130000837BD4680BD80B582B000AF7860786852
:10214000FFF7A2FF034618460837BD4680BD0000D2
:1021500080B485B000AF78600023FB607B68002B03
:1021600001D1012343E07B681B681A46224B1344CC
:10217000224AA2FB03231B099A007B681A647B682E
:102180001F4ADA637B68022283F821207B681B6880
:102190001B68FB60FB6823F47F5323F03003FB6074
:1021A0007B685A687B689B681A437B68DB681A43C4
:1021B0007B681B691A437B685B691A437B689B6970
:1021C0001A437B68DB691343FA681343FB607B683F
:1021D0001B68FA681A607B6800229A637B68012298
:1021E00083F821207B68002283F8202000231846F2
:1021F0001437BD4680BC7047F8FFFDBFCDCCCCCCBA
:102200000000024080B586B000AFF860B9607A6027
:102210003B600023FB75FB6893F82030012B01D154
:1022200002234AE0FB68012283F82020FB6893F830
:102230002130012B3AD1FB68022283F82120FB6870
:1022400000229A63FB681B681A68FB681B6822F00F
:1022500001021A603B687A68B968F86800F038F9DA
:10226000FB68DB6A002B08D0FB681B681A68FB68F8
:102270001B6842F00E021A600FE0FB681B681A68C8
:10228000FB681B6822F004021A60FB681B681A686E
:10229000FB681B6842F00A021A60FB681B681A6838
:1022A000FB681B6842F001021A6005E0FB6800222F
:1022B00083F820200223FB75FB7D18461837BD46A6
:1022C00080BD000080B584B000AF78607B68DB6BB8
:1022D0001B68FB607B681B681B68BB607B681B6CB2
:1022E00004229A40FB681340002B4FD0BB6803F0D8
:1022F0000403002B4AD07B681B681B6803F0200393
:10230000002B07D17B681B681A687B681B6822F06A
:1023100004021A607B681B68664A934229D07B6876
:102320001B68654A934222D07B681B68634A9342CC
:102330001AD07B681B68624A934212D07B681B6884
:10234000604A93420AD07B681B685F4A934202D17D
:102350004FF480030EE04FF080630BE04FF48023D6
:1023600008E04FF4804305E04FF4806302E040232F
:1023700000E00423554A53607B68DB6A002B00F0C1
:1023800094807B68DB6A786898478EE07B681B6C7A
:1023900002229A40FB681340002B56D0BB6803F022
:1023A0000203002B51D07B681B681B6803F02003DD
:1023B000002B0BD17B681B681A687B681B6822F0B6
:1023C0000A021A607B68012283F821207B681B685F
:1023D000384A934229D07B681B68374A934222D0FF
:1023E0007B681B68354A93421AD07B681B68344A65
:1023F000934212D07B681B68324A93420AD07B68B2
:102400001B68314A934202D14FF400130EE04FF0A3
:1024100000730BE04FF4003308E04FF4005305E085
:102420004FF4007302E0202300E00223274A5360A8
:102430007B68002283F820207B689B6A002B34D0C5
:102440007B689B6A786898472FE07B681B6C082242
:102450009A40FB681340002B28D0BB6803F00803A8
:10246000002B23D07B681B681A687B681B6822F0EE
:102470000E021A607B681A6C7B68DB6B012101FA23
:1024800002F25A607B6801229A637B68012283F81A
:1024900021207B68002283F820207B681B6B002BA7
:1024A00004D07B681B6B7868984700BF00BF10376B
:1024B000BD4680BD080002401C00024030000240C2
:1024C00044000240580002406C00024000000240FC
:1024D00080B485B000AFF860B9607A603B60FB689B
:1024E0001A6CFB68DB6B012101FA02F25A60FB688F
:1024F0001B683A685A60FB685B68102B08D1FB6860
:102500001B687A689A60FB681B68BA68DA6007E043
:10251000FB681B68BA689A60FB681B687A68DA60B7
:1025200000BF1437BD4680BC7047000080B48BB03C
:1025300000AF7860396000237B6200233B6269E171
:1025400001227B6A02FA03F3FB613B681B68FA69AC
:102550001340BB61BA69FB699A4240F058813B68FD
:102560005B689A4A93425ED0984A934275D8984ADB
:10257000934258D0964A93426FD8964A934252D08B
:10258000944A934269D8944A93424CD0924A9342D7
:1025900063D8924A934246D0904A93425DD8122B18
:1025A0002AD8122B59D801A252F823F02726000866
:1025B0000126000813260008552600085B2600089F
:1025C0005B2600085B2600085B2600085B260008E7
:1025D0005B2600085B2600085B2600085B260008D7
:1025E0005B2600085B2600085B2600085B260008C7
:1025F000092600081D260008794A934213D02CE0D2
:102600003B68DB683B6229E03B68DB6804333B6284
:1026100024E03B68DB6808333B621FE03B68DB6813
:102620000C333B621AE03B689B68002B02D1042309
:102630003B6213E03B689B68012B05D108233B629A
:102640007B68FA691A6109E008233B627B68FA69D2
:102650005A6103E000233B6200E000BFBB69FF2B2F
:1026600001D87B6801E07B6804337B61BB69FF2B89
:1026700002D87B6A9B0002E07B6A083B9B003B61BF
:102680007B691A680F213B6901FA03F3DB431A40A7
:10269000396A3B6901FA03F31A437B691A603B68A4
:1026A0005B6803F08053002B00F0B1804D4B9B69B9
:1026B0004C4A43F0010393614A4B9B6903F00103C9
:1026C000BB60BB68484A7B6A9B08023352F82330E0
:1026D000FB607B6A03F003039B000F2202FA03F303
:1026E000DB43FA681340FB607B68404A934213D097
:1026F0007B683F4A93420DD07B683E4A934207D0A5
:102700007B683D4A934201D1032306E0042304E0A1
:10271000022302E0012300E000237A6A02F00302B0
:1027200092009340FA681343FB602F497B6A9B0831
:102730000233FA6841F823203B685B6803F4803376
:10274000002B06D02D4B1A682C49BB6913430B6034
:1027500006E02A4B1A68BB69DB43284913400B602B
:102760003B685B6803F40033002B06D0234B5A68A8
:102770002249BB6913434B6006E0204B5A68BB6992
:10278000DB431E4913404B603B685B6803F48013D6
:10279000002B06D0194B9A681849BB6913438B600C
:1027A00006E0164B9A68BB69DB43144913408B6003
:1027B0003B685B6803F40013002B21D00F4BDA68F1
:1027C0000E49BB691343CB6021E000BF000032100B
:1027D0000000311000002210000021100000121033
:1027E00000001110001002400000014000080140EC
:1027F000000C0140001001400014014000040140A1
:102800000B4BDA68BB69DB4309491340CB607B6A39
:1028100001337B623B681A687B6A22FA03F3002B60
:102820007FF48EAE00BF00BF2C37BD4680BC704722
:102830000004014080B586B000AF78607B68002B53
:1028400001D1012372E27B681B6803F00103002BB6
:1028500000F08780924B5B6803F00C03042B0CD0D4
:102860008F4B5B6803F00C03082B12D18C4B5B6819
:1028700003F48033B3F5803F0BD1894B1B6803F41D
:102880000033002B6CD07B685B68002B68D1012380
:102890004CE27B685B68B3F5803F06D1804B1B68D8
:1028A0007F4A43F4803313602EE07B685B68002B23
:1028B0000CD17B4B1B687A4A23F480331360784B2E
:1028C0001B68774A23F4802313601DE07B685B68F4
:1028D000B3F5A02F0CD1724B1B68714A43F48023CF
:1028E00013606F4B1B686E4A43F4803313600BE038
:1028F0006B4B1B686A4A23F480331360684B1B6878
:10290000674A23F4802313607B685B68002B13D035
:10291000FEF79CFD386108E0FEF798FD02463B6932
:10292000D31A642B01D9032300E25D4B1B6803F427
:102930000033002BF0D014E0FEF788FD386108E08A
:10294000FEF784FD02463B69D31A642B01D90323A9
:10295000ECE1534B1B6803F40033002BF0D100E093
:1029600000BF7B681B6803F00203002B63D04C4B55
:102970005B6803F00C03002B0BD0494B5B6803F042
:102980000C03082B1CD1464B5B6803F48033002BEF
:1029900016D1434B1B6803F00203002B05D07B6864
:1029A0001B69012B01D00123C0E13D4B1B6823F0C3
:1029B000F8027B685B69DB00394913430B603AE03E
:1029C0007B681B69002B20D0364B01221A60FEF772
:1029D0003DFD386108E0FEF739FD02463B69D31A38
:1029E000022B01D90323A1E12D4B1B6803F0020345
:1029F000002BF0D02A4B1B6823F0F8027B685B6940
:102A0000DB00274913430B6015E0264B00221A60B8
:102A1000FEF71CFD386108E0FEF718FD02463B6931
:102A2000D31A022B01D9032380E11D4B1B6803F04D
:102A30000203002BF0D17B681B6803F00803002B16
:102A40003AD07B689B69002B19D0174B01221A6082
:102A5000FEF7FCFC386108E0FEF7F8FC02463B6933
:102A6000D31A022B01D9032360E10D4B5B6A03F0FB
:102A70000203002BF0D0012000F0C4FA1CE00A4B46
:102A800000221A60FEF7E2FC38610FE0FEF7DEFC80
:102A900002463B69D31A022B08D9032346E100BF43
:102AA000001002400000424280044242924B5B6AA6
:102AB00003F00203002BE9D17B681B6803F00403D9
:102AC000002B00F0A6800023FB758B4BDB6903F025
:102AD0008053002B0DD1884BDB69874A43F080532C
:102AE000D361854BDB6903F08053BB60BB68012376
:102AF000FB75824B1B6803F48073002B18D17F4B4E
:102B00001B687E4A43F480731360FEF79FFC3861B4
:102B100008E0FEF79BFC02463B69D31A642B01D9FF
:102B2000032303E1754B1B6803F48073002BF0D083
:102B30007B68DB68012B06D16F4B1B6A6E4A43F042
:102B4000010313622DE07B68DB68002B0CD16A4B1C
:102B50001B6A694A23F001031362674B1B6A664ACA
:102B600023F0040313621CE07B68DB68052B0CD1A7
:102B7000614B1B6A604A43F0040313625E4B1B6A9D
:102B80005D4A43F0010313620BE05B4B1B6A5A4A38
:102B900023F001031362584B1B6A574A23F00403C6
:102BA00013627B68DB68002B15D0FEF74FFC3861A1
:102BB0000AE0FEF74BFC02463B69D31A41F2883229
:102BC000934201D90323B1E04B4B1B6A03F002038C
:102BD000002BEED014E0FEF739FC38610AE0FEF776
:102BE00035FC02463B69D31A41F28832934201D93F
:102BF00003239BE0404B1B6A03F00203002BEED142
:102C0000FB7D012B05D13C4BDB693B4A23F0805314
:102C1000D3617B68DB69002B00F08780364B5B68F3
:102C200003F00C03082B61D07B68DB69022B46D1D3
:102C3000334B00221A60FEF709FC386108E0FEF70A
:102C400005FC02463B69D31A022B01D903236DE030
:102C5000294B1B6803F00073002BF0D17B681B6AC3
:102C6000B3F5803F08D1244B5B6823F400327B68C6
:102C70009B68214913434B601F4B5B6823F474121C
:102C80007B68196A7B685B6A0B431B4913434B6083
:102C90001B4B01221A60FEF7D9FB386108E0FEF7F2
:102CA000D5FB02463B69D31A022B01D903233DE031
:102CB000114B1B6803F00073002BF0D035E0104B74
:102CC00000221A60FEF7C2FB386108E0FEF7BEFB87
:102CD00002463B69D31A022B01D9032326E0064B97
:102CE0001B6803F00073002BF0D11EE07B68DB69EA
:102CF000012B07D1012319E00010024000700040B1
:102D0000600042420B4B5B68FB60FB6803F480325F
:102D10007B681B6A9A4206D1FB6803F470127B68D9
:102D20005B6A9A4201D0012300E00023184618375D
:102D3000BD4680BD0010024080B584B000AF786011
:102D400039607B68002B01D10123D0E06A4B1B68FE
:102D500003F007033A689A4210D9674B1B6823F0C7
:102D6000070265493B6813430B60634B1B6803F024
:102D700007033A689A4201D00123B8E07B681B68D8
:102D800003F00203002B20D07B681B6803F00403D0
:102D9000002B05D0594B5B68584A43F4E0635360FD
:102DA0007B681B6803F00803002B05D0534B5B685E
:102DB000524A43F460535360504B5B6823F0F00277
:102DC0007B689B684D4913434B607B681B6803F02D
:102DD0000103002B40D07B685B68012B07D1474B78
:102DE0001B6803F40033002B15D101237FE07B68BF
:102DF0005B68022B07D1414B1B6803F00073002B6B
:102E000009D1012373E03D4B1B6803F00203002B43
:102E100001D101236BE0394B5B6823F003027B682F
:102E20005B68364913434B60FEF710FBF8600AE01D
:102E3000FEF70CFB0246FB68D31A41F2883293423C
:102E400001D9032353E02D4B5B6803F00C027B6830
:102E50005B689B009A42EBD1274B1B6803F007038A
:102E60003A689A4210D2244B1B6823F00702224989
:102E70003B6813430B60204B1B6803F007033A6861
:102E80009A4201D0012332E07B681B6803F00403FF
:102E9000002B08D0194B5B6823F4E0627B68DB6889
:102EA000164913434B607B681B6803F00803002B33
:102EB00009D0124B5B6823F460527B681B69DB000E
:102EC0000E4913434B6000F021F802460B4B5B6840
:102ED0001B0903F00F030A49CB5C22FA03F3094AEA
:102EE0001360094B1B681846FEF76EFA002318465C
:102EF0001037BD4680BD00BF0020024000100240D8
:102F000020480008080000200C00002090B48AB07F
:102F100000AF294B3C1D0FCB84E80F0040F201238A
:102F20003B800023FB610023BB6100237B62002305
:102F30007B6100233B62214B5B68FB61FB6903F013
:102F40000C03042B02D0082B03D02BE01C4B3B625C
:102F50002BE0FB699B0C03F00F0328333B4413F871
:102F6000243C7B61FB6903F48033002B12D0134BAC
:102F70005B685B0C03F0010328333B4413F8283CE7
:102F8000BB617B690E4A03FB02F2BB69B2FBF3F340
:102F90007B6204E07B690B4A02FB03F37B627B6A82
:102FA0003B6202E0064B3B6200BF3B6A1846283793
:102FB000BD4690BC704700BF0048000800100240AA
:102FC00000127A0000093D0080B400AF024B1B687C
:102FD0001846BD4680BC70470800002080B500AF91
:102FE000FFF7F2FF0246054B5B68DB0A03F00703BD
:102FF0000349CB5C22FA03F3184680BD001002405F
:103000003048000880B485B000AF78600A4B1B6878
:103010000A4AA2FB03235B0A7A6802FB03F3FB6004
:1030200000BFFB685A1EFA60002BF9D100BF00BF39
:103030001437BD4680BC704708000020D34D621095
:1030400080B586B000AF786000233B610023FB6051
:103050007B681B6803F00103002B7DD00023FB7508
:103060004F4BDB6903F08053002B0DD14C4BDB69D8
:103070004B4A43F08053D361494BDB6903F08053E3
:10308000BB60BB680123FB75464B1B6803F4807370
:10309000002B18D1434B1B68424A43F480731360E2
:1030A000FEF7D4F9386108E0FEF7D0F902463B6933
:1030B000D31A642B01D903236DE03A4B1B6803F448
:1030C0008073002BF0D0364B1B6A03F44073FB6017
:1030D000FB68002B2ED07B685B6803F44073FA68B2
:1030E0009A4227D02E4B1B6A23F44073FB602E4B71
:1030F00001221A602C4B00221A60294AFB681362D5
:10310000FB6803F00103002B14D0FEF79FF9386130
:103110000AE0FEF79BF902463B69D31A41F2883276
:10312000934201D9032336E01D4B1B6A03F00203CF
:10313000002BEED01A4B1B6A23F440727B685B684D
:10314000174913430B62FB7D012B05D1144BDB693F
:10315000134A23F08053D3617B681B6803F002039A
:10316000002B08D00E4B5B6823F440427B689B68C1
:103170000B4913434B607B681B6803F01003002B63
:1031800008D0074B5B6823F480027B68DB68044946
:1031900013434B60002318461837BD4680BD00BF5F
:1031A00000100240007000404004424290B58DB0D3
:1031B00000AF7860584B07F10C040FCB84E80F0088
:1031C00040F201233B8100237B620023FB6200234A
:1031D0003B620023FB610023BB627B68102B0AD09B
:1031E0007B68102B00F28E807B68012B49D07B68B6
:1031F000022B79D086E0494B5B68FB61474B1B682B
:1032000003F08073002B7FD0FB699B0C03F00F034E
:1032100030333B4413F8243C3B62FB6903F48033B6
:10322000002B17D03D4B5B685B0C03F00103303380
:103230003B4413F8283C7B62FB6903F48033002B8A
:103240000DD0374A7B6AB2FBF3F23B6A02FB03F311
:10325000FB6204E03B6A334A02FB03F3FB622F4B41
:103260005B6803F48003B3F5800F02D1FB6ABB6295
:103270004AE0FB6A5B002C4AA2FB03235B08BB62AB
:1032800042E0264B1B6AFB61FB6903F44073B3F514
:10329000807F08D1FB6903F00203002B03D04FF4B9
:1032A0000043BB621FE0FB6903F44073B3F5007F8A
:1032B00009D11A4B5B6A03F00203002B03D049F6D5
:1032C0004043BB620FE0FB6903F44073B3F5407FFA
:1032D0001CD1124B1B6803F40033002B16D04FF2A5
:1032E0002443BB6212E011E0FFF778FE02460B4B6D
:1032F0005B689B0B03F0030301335B00B2FBF3F34A
:10330000BB6204E000BF02E000BF00E000BFBB6A98
:1033100018463437BD4690BD1048000800100240E2
:1033200000127A0000093D00ABAAAAAA80B582B0BB
:1033300000AF78607B68002B01D1012341E07B68FE
:1033400093F83D30DBB2002B06D17B68002283F876
:103350003C207868FDF75AFF7B68022283F83D2005
:103360007B681A687B6804331946104600F0F2FB4C
:103370007B68012283F846207B68012283F83E2087
:103380007B68012283F83F207B68012283F840207C
:103390007B68012283F841207B68012283F8422068
:1033A0007B68012283F843207B68012283F8442054
:1033B0007B68012283F845207B68012283F83D2049
:1033C000002318460837BD4680BD80B582B000AFE7
:1033D00078607B68002B01D1012341E07B6893F882
:1033E0003D30DBB2002B06D17B68002283F83C2005
:1033F0007868FDF727FF7B68022283F83D207B6811
:103400001A687B6804331946104600F0A3FB7B68FA
:10341000012283F846207B68012283F83E207B68E6
:10342000012283F83F207B68012283F840207B68DB
:10343000012283F841207B68012283F842207B68C7
:10344000012283F843207B68012283F844207B68B3
:10345000012283F845207B68012283F83D20002368
:1034600018460837BD4680BD80B584B000AF78608F
:1034700039603B68002B09D17B6893F83E30DBB2A2
:10348000012B14BF01230023DBB222E03B68042B95
:1034900009D17B6893F83F30DBB2012B14BF0123C5
:1034A0000023DBB215E03B68082B09D17B6893F859
:1034B0004030DBB2012B14BF01230023DBB208E054
:1034C0007B6893F84130DBB2012B14BF012300234A
:1034D000DBB2002B01D001235EE03B68002B04D15E
:1034E0007B68022283F83E2013E03B68042B04D162
:1034F0007B68022283F83F200BE03B68082B04D155
:103500007B68022283F8402003E07B68022283F874
:1035100041207B681B6801223968184600F09AFD3B
:103520007B681B681E4A934207D17B681B685A6CF4
:103530007B681B6842F400425A647B681B68184A27
:1035400093420ED07B681B68B3F1804F09D07B6833
:103550001B68144A934204D07B681B68124A93424A
:1035600011D17B681B689B6803F00703FB60FB6855
:10357000062B10D07B681B681A687B681B6842F0BA
:1035800001021A6007E07B681B681A687B681B6889
:1035900042F001021A60002318461037BD4680BD74
:1035A000002C0140000400400008004080B582B0BB
:1035B00000AF78607B68002B01D1012341E07B687C
:1035C00093F83D30DBB2002B06D17B68002283F8F4
:1035D0003C20786800F039F87B68022283F83D20AF
:1035E0007B681A687B6804331946104600F0B2FA0B
:1035F0007B68012283F846207B68012283F83E2005
:103600007B68012283F83F207B68012283F84020F9
:103610007B68012283F841207B68012283F84220E5
:103620007B68012283F843207B68012283F84420D1
:103630007B68012283F845207B68012283F83D20C6
:10364000002318460837BD4680BD80B483B000AF64
:10365000786000BF0C37BD4680BC704780B584B031
:1036600000AF786039603B68002B09D17B6893F824
:103670003E30DBB2012B14BF01230023DBB222E07A
:103680003B68042B09D17B6893F83F30DBB2012BF8
:1036900014BF01230023DBB215E03B68082B09D1DE
:1036A0007B6893F84030DBB2012B14BF0123002369
:1036B000DBB208E07B6893F84130DBB2012B14BF2A
:1036C00001230023DBB2002B01D001235EE03B6825
:1036D000002B04D17B68022283F83E2013E03B6874
:1036E000042B04D17B68022283F83F200BE03B6867
:1036F000082B04D17B68022283F8402003E07B681A
:10370000022283F841207B681B6801223968184631
:1037100000F0A0FC7B681B681E4A934207D17B68BF
:103720001B685A6C7B681B6842F400425A647B68D1
:103730001B68184A93420ED07B681B68B3F1804F18
:1037400009D07B681B68144A934204D07B681B68CD
:10375000124A934211D17B681B689B6803F00703F0
:10376000FB60FB68062B10D07B681B681A687B68BF
:103770001B6842F001021A6007E07B681B681A6848
:103780007B681B6842F001021A600023184610375C
:10379000BD4680BD002C01400004004000080040F0
:1037A00080B584B000AFF860B9607A60FB6893F8C8
:1037B0003C30012B01D1022346E0FB68012283F853
:1037C0003C207B680C2B39D801A252F823F000BFB3
:1037D000053800083D3800083D3800083D3800082D
:1037E000133800083D3800083D3800083D3800080F
:1037F000213800083D3800083D3800083D380008F1
:103800002F380008FB681B68B968184600F004FAF6
:1038100015E0FB681B68B968184600F063FA0EE013
:10382000FB681B68B968184600F0C6FA07E0FB6839
:103830001B68B968184600F029FB00E000BFFB6870
:10384000002283F83C20002318461037BD4680BD77
:1038500080B584B000AFF860B9607A60FB6893F817
:103860003C30012B01D10223ACE0FB68012283F83C
:103870003C207B680C2B00F29F8001A252F823F0C1
:10388000B5380008B9390008B9390008B939000855
:10389000F5380008B9390008B9390008B939000805
:1038A00037390008B9390008B9390008B9390008B2
:1038B00077390008FB681B68B968184600F0ACF956
:1038C000FB681B689A69FB681B6842F008029A61F2
:1038D000FB681B689A69FB681B6822F004029A6106
:1038E000FB681B689969BB681A69FB681B680A4317
:1038F0009A6162E0FB681B68B968184600F0F2F94B
:10390000FB681B689A69FB681B6842F400629A6155
:10391000FB681B689A69FB681B6822F480629A61E5
:10392000FB681B689969BB681B691A02FB681B6806
:103930000A439A6141E0FB681B68B968184600F0C9
:103940003BFAFB681B68DA69FB681B6842F00802F7
:10395000DA61FB681B68DA69FB681B6822F0040205
:10396000DA61FB681B68D969BB681A69FB681B6868
:103970000A43DA6121E0FB681B68B968184600F069
:1039800085FAFB681B68DA69FB681B6842F4006211
:10399000DA61FB681B68DA69FB681B6822F48062E5
:1039A000DA61FB681B68D969BB681B691A02FB688E
:1039B0001B680A43DA6100E000BFFB68002283F85D
:1039C0003C20002318461037BD4680BD80B584B02A
:1039D00000AF786039607B6893F83C30012B01D1EF
:1039E0000223B3E07B68012283F83C207B6802223B
:1039F00083F83D207B681B689B68FB60FB6823F0B5
:103A00007703FB60FB6823F47F43FB607B681B68E4
:103A1000FA689A603B681B68B3F5005F3ED0B3F567
:103A2000005F00F28780B3F5805F00F08580B3F51A
:103A3000805F7FD8702B1AD0702B7BD8602B50D032
:103A4000602B77D8502B3CD0502B73D8402B58D0BC
:103A5000402B6FD8302B64D0302B6BD8202B60D00C
:103A6000202B67D8002B5CD0102B5AD062E07B68EB
:103A700018683B6899683B685A683B68DB6800F0E7
:103A8000CAFA7B681B689B68FB60FB6843F077039E
:103A9000FB607B681B68FA689A604EE07B68186878
:103AA0003B6899683B685A683B68DB6800F0B3FA8A
:103AB0007B681B689A687B681B6842F480429A6046
:103AC0003BE07B6818683B6859683B68DB681A46CE
:103AD00000F02AFA7B681B685021184600F081FA32
:103AE0002BE07B6818683B6859683B68DB681A46BE
:103AF00000F048FA7B681B686021184600F071FAF4
:103B00001BE07B6818683B6859683B68DB681A46AD
:103B100000F00AFA7B681B684021184600F061FA41
:103B20000BE07B681A683B681B681946104600F07A
:103B300058FA02E000BF00E000BF7B68012283F872
:103B40003D207B68002283F83C2000231846103774
:103B5000BD4680BD80B485B000AF786039607B68B9
:103B60001B68FB607B68294A93420BD07B68B3F1EA
:103B7000804F07D07B68264A934203D07B68254A52
:103B8000934208D1FB6823F07003FB603B685B68DD
:103B9000FA681343FB607B681C4A93420BD07B6836
:103BA000B3F1804F07D07B68194A934203D07B68FA
:103BB000184A934208D1FB6823F44073FB603B68CA
:103BC000DB68FA681343FB60FB6823F080023B6804
:103BD0005B691343FB607B68FA681A603B689A680C
:103BE0007B68DA623B681A687B689A627B68074A7E
:103BF000934203D13B681A697B681A637B68012290
:103C00005A6100BF1437BD4680BC7047002C01408C
:103C1000000400400008004080B487B000AF786026
:103C200039607B681B6A23F001027B681A627B683B
:103C30001B6A7B617B685B683B617B689B69FB609F
:103C4000FB6823F07003FB60FB6823F00303FB6059
:103C50003B681B68FA681343FB607B6923F002032F
:103C60007B613B689B687A6913437B617B681C4A74
:103C700093420CD17B6923F008037B613B68DB68CE
:103C80007A6913437B617B6923F004037B617B6862
:103C9000134A934211D13B6923F480733B613B6922
:103CA00023F400733B613B685B693A6913433B61F2
:103CB0003B689B693A6913433B617B683A695A6088
:103CC0007B68FA689A613B685A687B685A637B68CC
:103CD0007A691A6200BF1C37BD4680BC704700BFBE
:103CE000002C014080B487B000AF786039607B68F9
:103CF0001B6A23F010027B681A627B681B6A7B6177
:103D00007B685B683B617B689B69FB60FB6823F4B5
:103D1000E043FB60FB6823F44073FB603B681B6877
:103D20001B02FA681343FB607B6923F020037B616D
:103D30003B689B681B017A6913437B617B681D4A62
:103D400093420DD17B6923F080037B613B68DB6884
:103D50001B017A6913437B617B6923F040037B611C
:103D60007B68144A934213D13B6923F480633B611F
:103D70003B6923F400633B613B685B699B003A69E4
:103D800013433B613B689B699B003A6913433B616A
:103D90007B683A695A607B68FA689A613B685A683E
:103DA0007B689A637B687A691A6200BF1C37BD46DC
:103DB00080BC7047002C014080B487B000AF7860B1
:103DC00039607B681B6A23F480727B681A627B68A7
:103DD0001B6A7B617B685B683B617B68DB69FB60BE
:103DE000FB6823F07003FB60FB6823F00303FB60B8
:103DF0003B681B68FA681343FB607B6923F400731C
:103E00007B613B689B681B027A6913437B617B681B
:103E10001D4A93420DD17B6923F400637B613B68AB
:103E2000DB681B027A6913437B617B6923F480633F
:103E30007B617B68144A934213D13B6923F480531E
:103E40003B613B6923F400533B613B685B691B01A9
:103E50003A6913433B613B689B691B013A69134311
:103E60003B617B683A695A607B68FA68DA613B6853
:103E70005A687B68DA637B687A691A6200BF1C370C
:103E8000BD4680BC704700BF002C014080B487B0A5
:103E900000AF786039607B681B6A23F480527B68CE
:103EA0001A627B681B6A3B617B685B687B617B682D
:103EB000DB69FB60FB6823F4E043FB60FB6823F4F1
:103EC0004073FB603B681B681B02FA681343FB608E
:103ED0003B6923F400533B613B689B681B033A69D1
:103EE00013433B617B680F4A934209D17B6923F4FA
:103EF00080437B613B685B699B017A6913437B610B
:103F00007B687A695A607B68FA68DA613B685A684C
:103F10007B681A647B683A691A6200BF1C37BD4629
:103F200080BC7047002C014080B487B000AFF860BF
:103F3000B9607A60FB681B6A7B61FB681B6A23F0CF
:103F40000102FB681A62FB689B693B613B6923F0D5
:103F5000F0033B617B681B013A6913433B617B695A
:103F600023F00A037B617A69BB6813437B61FB68BA
:103F70003A699A61FB687A691A6200BF1C37BD46CC
:103F800080BC704780B487B000AFF860B9607A60D9
:103F9000FB681B6A23F01002FB681A62FB689B69CE
:103FA0007B61FB681B6A3B617B6923F470437B6127
:103FB0007B681B037A6913437B613B6923F0A00391
:103FC0003B61BB681B013A6913433B61FB687A693B
:103FD0009A61FB683A691A6200BF1C37BD4680BC13
:103FE000704780B485B000AF786039607B689B68AB
:103FF000FB60FB6823F07003FB603A68FB681343C7
:1040000043F00703FB607B68FA689A6000BF1437CF
:10401000BD4680BC704780B487B000AFF860B9601F
:104020007A603B60FB689B687B617B6923F47F431C
:104030007B613B681A027B681A43BB6813437A6949
:1040400013437B61FB687A699A6000BF1C37BD46E9
:1040500080BC704780B487B000AFF860B9607A6008
:10406000BB6803F01F03012202FA03F37B61FB68C4
:104070001A6A7B69DB431A40FB681A62FB681A6A9A
:10408000BB6803F01F03796801FA03F31A43FB6866
:104090001A6200BF1C37BD4680BC704780B485B033
:1040A00000AF786039607B6893F83C30012B01D118
:1040B000022346E07B68012283F83C207B680222D1
:1040C00083F83D207B681B685B68FB607B681B682E
:1040D0009B68BB60FB6823F07003FB603B681B6858
:1040E000FA681343FB607B681B68FA685A607B6858
:1040F0001B68164A93420ED07B681B68B3F1804F51
:1041000009D07B681B68124A934204D07B681B6805
:10411000104A93420CD1BB6823F08003BB603B681C
:104120005B68BA681343BB607B681B68BA689A60B7
:104130007B68012283F83D207B68002283F83C20C5
:10414000002318461437BD4680BC7047002C014040
:10415000000400400008004080B582B000AF7860E5
:104160007B685B6CD3E900237968C1E914237B6821
:104170001B6CD3E900237968C1E916237B68D3E976
:1041800014017B68D3E91A23FCF72EFC0346002BAD
:1041900006D07B68D3E91A237968C1E9142311E0BA
:1041A0007B68D3E914017B68D3E91823FCF7FEFB95
:1041B0000346002B00D105E07B68D3E9182379681A
:1041C000C1E9142300BF0837BD4680BD00000000D0
:1041D00080B58AB006AFF860B9607A603B60FB6872
:1041E0007A685A64FB68BA681A64FB683A689A6429
:1041F000FB6800225A7018A3D3E90023CDE90023FD
:104200004FF000024FF00003F86800F031F9FB684E
:1042100064229A6097F834301946F86800F03CFA46
:1042200097F830300493D7E90A23CDE90223D7E980
:104230000823CDE90023D7E90623F86800F084F9C4
:10424000FDF704F90246FB689B68D21AFB685A60C6
:1042500000BF1037BD4680BD0000000000E06F4089
:10426000B0B58CB000AF78607B685B78002B01D173
:104270000023DBE0FDF7EAF878627B685B687A6A26
:10428000D31A3B627B689B683A6A9A42C0F0CD8041
:104290007B681B6CD3E90023C7E906237B689B6C12
:1042A000D3E90001D7E90623FBF756FF02460B4688
:1042B000C7E904237B68D3E91623D7E90601FBF796
:1042C0004BFF02460B46C7E902237B68D3E914453E
:1042D0007B68D3E90C01D7E90423FCF7F5F8024623
:1042E0000B4620462946FBF739FF02460B46796804
:1042F000C1E914237B681B78002B14D17B68D3E9B8
:1043000014457B68D3E90A01D7E90223FCF7DCF8FE
:1043100002460B4620462946FBF71EFF02460B4687
:104320007968C1E914237B68D3E914017B68D3E978
:104330001A23FCF759FB0346002B06D07B68D3E910
:104340001A237968C1E9142310E07B68D3E91401CA
:104350007B68D3E91823FCF729FB0346002B05D023
:104360007B68D3E918237968C1E914237B681B783B
:10437000002B0BD07B68D3E90A23D7E90401FCF7B3
:10438000A3F802460B46C7E90A2305E04FF00002F6
:104390004FF00003C7E90A237B68D3E914457B6823
:1043A000D3E90E01D7E90223FCF78EF802460B464B
:1043B00020462946FBF7D0FE02460B46D7E90A0104
:1043C000FBF7CCFE02460B46C7E90A237B68D3E91C
:1043D0001A23D7E90A01FCF707FB0346002B05D097
:1043E0007B68D3E91A23C7E90A230EE07B68D3E987
:1043F0001823D7E90A01FCF7D9FA0346002B04D0A9
:104400007B68D3E91823C7E90A237B68596CD7E98D
:104410000A23C1E900237968D7E90623C1E91623F5
:104420007B687A6A5A60012300E00023184630371F
:10443000BD46B0BD80B584B000AF78600B46FB7060
:10444000FB78012B0CBF01230023DBB2FB73FB7B4A
:10445000002B06D07B685B78002B02D17868FFF7D1
:104460007BFE7B68FA7B5A7000BF1037BD4680BD6B
:1044700080B584B000AFF860C7E90023D7E9062310
:10448000D7E90001FCF7A6FA0346002B58D1F968DA
:10449000D7E90023C1E91823F968D7E90623C1E960
:1044A0001A23FB685B78002B4BD0FB685B6CD3E96D
:1044B0000001FB68D3E91A23FCF796FA0346002BA8
:1044C00007D0FB68596CFB68D3E91A23C1E90023C4
:1044D00012E0FB685B6CD3E90001FB68D3E91823A9
:1044E000FCF764FA0346002B06D0FB68596CFB68A6
:1044F000D3E91823C1E90023FB68D3E91401FB6861
:10450000D3E91A23FCF770FA0346002B06D0FB68A8
:10451000D3E91A23F968C1E9142312E0FB68D3E94F
:104520001401FB68D3E91823FCF740FA0346002B7B
:1045300007D0FB68D3E91823F968C1E9142300E028
:1045400000BF1037BD4680BD80B586B000AFF860B3
:10455000C7E900234FF000024FF00003D7E9000144
:10456000FCF724FA0346002B40F08B804FF000024A
:104570004FF00003D7E90801FCF718FA0346002BB7
:104580007FD14FF000024FF00003D7E90A01FCF79A
:104590000DFA0346002B74D1FB6897F830209A700F
:1045A00097F83030012B0CBF01230023DBB21A46F1
:1045B000FB681A70F968D7E90023C1E90423F96898
:1045C000D7E90823C1E90623F968D7E90A23C1E935
:1045D0000823FB689B681846FBF7FCFE2CA3D3E975
:1045E0000023FCF79BF802460B46C7E90423F96851
:1045F000D7E90023C1E90A23D7E90423D7E9080151
:10460000FBF762FF02460B46F968C1E90C23D7E9C4
:104610000423D7E90A01FCF781F802460B46F96842
:10462000C1E90E23FB68DB78012B2BD1FB68D3E9B2
:104630000A234FF000004FF00001FBF78DFD02460A
:104640000B46F968C1E90A23FB68D3E90C234FF054
:1046500000004FF00001FBF77FFD02460B46F968B2
:10466000C1E90C23FB68D3E90E234FF000004FF0A3
:104670000001FBF771FD02460B46F968C1E90E2304
:1046800000E000BF1837BD4680BD00BFAFF300801B
:104690000000000080842E4180B582B000AF7860B9
:1046A0000B46FB707B685B78002B2ED07B68DB7839
:1046B000FA789A4229D07B68D3E90A234FF00000A8
:1046C0004FF00001FBF748FD02460B467968C1E94F
:1046D0000A237B68D3E90C234FF000004FF0000160
:1046E000FBF73AFD02460B467968C1E90C237B686B
:1046F000D3E90E234FF000004FF00001FBF72CFD33
:1047000002460B467968C1E90E237B68FA78DA70B5
:1047100000BF0837BD4680BDB0B584B000AF78603B
:1047200039603B68002B2EDD3868FBF763FE0446DA
:104730000D467B689B681846FBF74CFE02460B460D
:1047400020462946FBF7EAFF02460B46C7E902234B
:104750007B68D3E90C01D7E90223FBF7B5FE0246DB
:104760000B467968C1E90C237B68D3E90E01D7E9D0
:104770000223FBF7D3FF02460B467968C1E90E23FB
:104780003A687B689A6000BF1037BD46B0BD000034
:1047900070B500260C4D0D4C641BA410A64209D127
:1047A00000F022F800260A4D0A4C641BA410A64211
:1047B00005D170BD55F8043B98470136EEE755F832
:1047C000043B98470136F2E73848000838480008AB
:1047D000384800083C48000803460244934200D190
:1047E000704703F8011BF9E7F8B500BFF8BC08BC37
:1047F0009E467047F8B500BFF8BC08BC9E4670479F
:1048000002030405060708090A0B0C0D0E0F101011
:1048100002030405060708090A0B0C0D0E0F101001
:104820000000000000000000010203040607080960
:08483000000000000102030476
:04483800350100083E
:04483C00110100085E
:104840000000000000805E400024F4001000000022
:044850000100000063
:04000005080013518B
:00000001FF
