:020000040800F2
:100000000050002005160008951500089B150008F3
:10001000A1150008A7150008AD1500080000000094
:10002000000000000000000000000000B315000800
:10003000BF15000800000000CB150008D715000808
:100040004D1600084D1600084D1600084D16000804
:100050004D1600084D1600084D1600084D160008F4
:100060004D1600084D1600084D160008E51500084D
:100070004D1600084D1600084D1600084D160008D4
:100080004D1600084D1600084D1600084D160008C4
:100090004D1600084D1600084D1600084D160008B4
:1000A0004D1600084D1600084D1600084D160008A4
:1000B0004D1600084D1600084D1600084D16000894
:1000C0004D1600084D1600084D1600084D16000884
:1000D0004D1600084D1600084D1600084D16000874
:1000E0004D1600084D1600084D16000800000000CF
:1000F0000000000000000000000000000000000000
:0C01000000000000000000005FF808F1A3
:1001100010B5054C237833B9044B13B10448AFF341
:1001200000800123237010BD280000200000000083
:10013000E04D000808B5034B1BB103490348AFF37A
:10014000008008BD000000002C000020E04D0008E9
:1001500081F0004102E000BF83F0004330B54FEA78
:1001600041044FEA430594EA050F08BF90EA020FE5
:100170001FBF54EA000C55EA020C7FEA645C7FEA78
:10018000655C00F0E2804FEA5454D4EB5555B8BF9B
:100190006D420CDD2C4480EA020281EA030382EA0C
:1001A000000083EA010180EA020281EA0303362D9E
:1001B00088BF30BD11F0004F4FEA01314FF4801C71
:1001C0004CEA113102D0404261EB410113F0004F83
:1001D0004FEA03334CEA133302D0524263EB43033A
:1001E00094EA050F00F0A780A4F10104D5F1200ED8
:1001F0000DDB02FA0EFC22FA05F2801841F1000133
:1002000003FA0EF2801843FA05F359410EE0A5F106
:1002100020050EF1200E012A03FA0EFC28BF4CF037
:10022000020C43FA05F3C01851EBE37101F00045ED
:1002300007D54FF0000EDCF1000C7EEB00006EEBFA
:100240000101B1F5801F1BD3B1F5001F0CD3490884
:100250005FEA30004FEA3C0C04F101044FEA4452DB
:1002600012F5800F80F09A80BCF1004F08BF5FEA62
:10027000500C50F1000041EB045141EA050130BD42
:100280005FEA4C0C404141EB0101013C28BFB1F554
:10029000801FE9D291F0000F04BF01460020B1FA9F
:1002A00081F308BF2033A3F10B03B3F120020CDA72
:1002B0000C3208DD02F1140CC2F10C0201FA0CF050
:1002C00021FA02F10CE002F11402D8BFC2F1200CB5
:1002D00001FA02F120FA0CFCDCBF41EA0C0190406B
:1002E000E41AA2BF01EB0451294330BD6FEA0404B4
:1002F0001F3C1CDA0C340EDC04F11404C4F120029F
:1003000020FA04F001FA02F340EA030021FA04F3B0
:1003100045EA030130BDC4F10C04C4F1200220FA07
:1003200002F001FA04F340EA0300294630BD21FA45
:1003300004F0294630BD94F0000F83F4801306BF0B
:1003400081F480110134013D4EE77FEA645C18BFFF
:100350007FEA655C29D094EA050F08BF90EA020F96
:1003600005D054EA000C04BF1946104630BD91EA8E
:10037000030F1EBF0021002030BD5FEA545C05D191
:100380004000494128BF41F0004130BD14F58004D0
:100390003CBF01F5801130BD01F0004545F0FE4144
:1003A00041F470014FF0000030BD7FEA645C1ABF79
:1003B000194610467FEA655C1CBF0B46024650EAB0
:1003C000013406BF52EA033591EA030F41F40021DC
:1003D00030BD00BF90F0000F04BF0021704730B562
:1003E0004FF4806404F132044FF000054FF0000137
:1003F00050E700BF90F0000F04BF0021704730B5F8
:100400004FF4806404F1320410F0004548BF4042CC
:100410004FF000013EE700BF42004FEAE2014FEA21
:1004200031014FEA02701FBF12F07F4393F07F4FFC
:1004300081F06051704732F07F4208BF704793F0FF
:100440007F4F04BF41F40021704730B54FF4607412
:1004500001F0004521F000411CE700BF50EA010215
:1004600008BF704730B54FF000050AE050EA0102BE
:1004700008BF704730B511F0004502D5404261EB2E
:1004800041014FF4806404F132045FEA915C3FF46F
:10049000D8AE4FF003025FEADC0C18BF03325FEA0C
:1004A000DC0C18BF033202EBDC02C2F1200300FABD
:1004B00003FC20FA02F001FA03FE40EA0E0021FAE2
:1004C00002F11444BDE600BF70B54FF0FF0C4CF4D0
:1004D000E06C1CEA11541DBF1CEA135594EA0C0F82
:1004E00095EA0C0F00F0DEF82C4481EA030621EABD
:1004F0004C5123EA4C5350EA013518BF52EA0335F8
:1005000041F4801143F4801338D0A0FB02CE4FF0A9
:100510000005E1FB02E506F00042E0FB03E54FF0D9
:100520000006E1FB03569CF0000F18BF4EF0010ED1
:10053000A4F1FF04B6F5007F64F5407404D25FEACD
:100540004E0E6D4146EB060642EAC62141EA555180
:100550004FEAC52040EA5E504FEACE2EB4F1FD0CC2
:1005600088BFBCF5E06F1ED8BEF1004F08BF5FEA40
:10057000500E50F1000041EB045170BD06F00046F2
:1005800046EA010140EA020081EA0301B4EB5C049F
:10059000C2BFD4EB0C0541EA045170BD41F4801197
:1005A0004FF0000E013C00F3AB8014F1360FDEBFBC
:1005B000002001F0004170BDC4F10004203C35DA98
:1005C0000C341BDC04F11404C4F1200500FA05F31B
:1005D00020FA04F001FA05F240EA020001F00042BC
:1005E00021F0004110EBD37021FA04F642EB060132
:1005F0005EEA430E08BF20EAD37070BDC4F10C045C
:10060000C4F1200500FA04F320FA05F001FA04F21F
:1006100040EA020001F0004110EBD37041F100010B
:100620005EEA430E08BF20EAD37070BDC4F1200516
:1006300000FA05F24EEA020E20FA04F301FA05F27E
:1006400043EA020321FA04F001F0004121FA04F226
:1006500020EA020000EBD3705EEA430E08BF20EAF6
:10066000D37070BD94F0000F0FD101F00046400030
:1006700041EB010111F4801F08BF013CF7D041EAB2
:10068000060195F0000F18BF704703F000465200B6
:1006900043EB030313F4801F08BF013DF7D043EA87
:1006A0000603704794EA0C0F0CEA135518BF95EA3D
:1006B0000C0F0CD050EA410618BF52EA4306D1D1C4
:1006C00081EA030101F000414FF0000070BD50EAE3
:1006D000410606BF1046194652EA430619D094EA6D
:1006E0000C0F02D150EA013613D195EA0C0F05D157
:1006F00052EA03361CBF104619460AD181EA0301AB
:1007000001F0004141F0FE4141F470014FF0000062
:1007100070BD41F0FE4141F4780170BD70B54FF0FD
:10072000FF0C4CF4E06C1CEA11541DBF1CEA13557D
:1007300094EA0C0F95EA0C0F00F0A7F8A4EB05045F
:1007400081EA030E52EA03354FEA013100F0888056
:100750004FEA03334FF0805545EA131343EA12631F
:100760004FEA022245EA111545EA10654FEA0026D4
:100770000EF000419D4208BF964244F1FD0404F58D
:10078000407402D25B084FEA3202B61A65EB0305E9
:100790005B084FEA32024FF480104FF4002CB6EBA6
:1007A000020E75EB030E22BFB61A754640EA0C0026
:1007B0005B084FEA3202B6EB020E75EB030E22BF66
:1007C000B61A754640EA5C005B084FEA3202B6EBA7
:1007D000020E75EB030E22BFB61A754640EA9C0066
:1007E0005B084FEA3202B6EB020E75EB030E22BF36
:1007F000B61A754640EADC0055EA060E18D04FEAF4
:10080000051545EA16754FEA06164FEAC30343EA93
:1008100052734FEAC2025FEA1C1CC0D111F4801F60
:100820000BD141EA00014FF000004FF0004CB6E759
:1008300011F4801F04BF01430020B4F1FD0C88BFF8
:10084000BCF5E06F3FF6AFAEB5EB030C04BFB6EB03
:10085000020C5FEA500C50F1000041EB045170BDF6
:100860000EF0004E4EEA113114EB5C04C2BFD4EB23
:100870000C0541EA045170BD41F480114FF0000EA7
:10088000013C90E645EA060E8DE60CEA135594EA23
:100890000C0F08BF95EA0C0F3FF43BAF94EA0C0F26
:1008A0000AD150EA01347FF434AF95EA0C0F7FF49B
:1008B00025AF104619462CE795EA0C0F06D152EAEF
:1008C00003353FF4FDAE1046194622E750EA4106D3
:1008D00018BF52EA43067FF4C5AE50EA41047FF4E4
:1008E0000DAF52EA43057FF4EBAE12E74FF0FF3C49
:1008F00006E000BF4FF0010C02E000BF4FF0010C1A
:100900004DF804CD4FEA410C7FEA6C5C4FEA430C92
:1009100018BF7FEA6C5C1BD001B050EA410C0CBFE1
:1009200052EA430C91EA030F02BF90EA020F002043
:10093000704710F1000F91EA030F58BF994208BFAA
:1009400090422CBFD8176FEAE37040F00100704767
:100950004FEA410C7FEA6C5C02D150EA013C07D1BE
:100960004FEA430C7FEA6C5CD6D152EA033CD3D009
:100970005DF8040B704700BF8446104662468C4603
:100980001946634600E000BF01B5FFF7B7FF002836
:1009900048BF10F1000F01BD4DF808EDFFF7F4FF5F
:1009A0000CBF012000205DF808FB00BF4DF808EDEA
:1009B000FFF7EAFF34BF012000205DF808FB00BF0D
:1009C0004DF808EDFFF7E0FF94BF012000205DF82F
:1009D00008FB00BF4DF808EDFFF7CEFF94BF0120E4
:1009E00000205DF808FB00BF4DF808EDFFF7C4FFDD
:1009F00034BF012000205DF808FB00BF4FEA410230
:100A0000B2F1E04324BFB3F5001CDCF1FE5C0DD96C
:100A100001F0004C4FEAC0024CEA5070B2F1004FB6
:100A200040EB830008BF20F00100704711F0804FB9
:100A300021D113F13872BCBF01F00040704741F47E
:100A400080114FEA5252C2F11802C2F1200C10FA82
:100A50000CF320FA02F018BF40F001004FEAC12366
:100A60004FEAD32303FA0CFC40EA0C0023FA02F30A
:100A70004FEA4303CCE77FEA625307D150EA0133E0
:100A80001EBF4FF0FE4040F44000704701F00040B0
:100A900040F0FE4040F40000704700BF42000ED21C
:100AA000B2F1FE4F0BD34FF09E03B3EB126209D4A9
:100AB0004FEA002343F0004323FA02F070474FF05F
:100AC0000000704712F1610F01D1420202D14FF0D4
:100AD000FF3070474FF00000704700BF80B487B010
:100AE00000AF786000237B610223FB6000233B6141
:100AF0000BE03B695B007A6813441B881A467B69EC
:100B000013447B613B6901333B613A69FB689A425C
:100B1000EFD37A69FB68B2FBF3F37B817B891846DC
:100B20001C37BD4680BC704780B582B000AF03461D
:100B3000FB80FB881846FFF75DFC0BA3D3E900237D
:100B4000FFF7C2FC02460B46104619464FF0000262
:100B5000074BFFF7E3FD02460B46104619460837E0
:100B6000BD4680BDAFF300806666666666660A4075
:100B70000000B0400000000080B588B008AF00F071
:100B800067FD00F077F800F0D1FA00F0B1FA00F05C
:100B90002BF900F05DF900F0C9F800F029FA00F037
:100BA000D9F900F07BFA002307930123069322A3CF
:100BB000D3E90023CDE904234FF00002204BCDE917
:100BC00002234FF000021F4BCDE900231E4B1F4AAA
:100BD0001F49204803F0F0FD01211E4803F023FFC8
:100BE00028211C4804F094F81B4BD3E900011B4B4F
:100BF000D3E90023CDE9002302460B46154803F054
:100C000030FF174801F09EF90A221649144800F0F7
:100C100059FE0C21144802F037FE144802F09AFDE8
:100C20000021134802F02AFF0421114802F026FF98
:100C3000FEE700BFAFF300808DEDB5A0F7C6B03E74
:100C400000408F400000E03F10000020880200209C
:100C50008002002048000020B80000200000002092
:100C6000C000002090020020EC010020A401002020
:100C70005C01002080B594B000AF07F12803282262
:100C80000021184604F0A4F807F1140300221A60AA
:100C90005A609A60DA601A613B1D00221A605A603D
:100CA0009A60DA600123BB624FF48033FB62002359
:100CB0003B630123BB6302237B644FF48033BB643B
:100CC0004FF4E013FB6407F12803184601F062FFBC
:100CD0000346002B01D000F0B7FA0F237B610223FB
:100CE000BB610023FB614FF480633B6200237B62A6
:100CF00007F114030221184602F0CEF90346002B37
:100D000001D000F0A1FA02237B604FF40043FB60A6
:100D10003B1D184602F058FB0346002B01D000F0A3
:100D200093FA00BF5037BD4680BD000080B58AB041
:100D300000AF07F1100300221A605A609A60DA606F
:100D40001A615A613B1D00221A605A609A60234B57
:100D5000234A1A60214B00229A60204B00221A730A
:100D60001E4B00221A751D4B4FF42022DA611B4BDB
:100D700000225A60194B01221A61184800F0CAFC7F
:100D80000346002B01D000F05FFA164B3B610023B5
:100D9000FB6100233B6204237B6100233B7607F168
:100DA000100319460D4800F075FF0346002B01D0D3
:100DB00000F04AFA04237B600123BB600023FB6040
:100DC0003B1D1946054800F06DFE0346002B01D07F
:100DD00000F03AFA00BF2837BD4680BDC0000020B1
:100DE000002401400002800080B500AF164B174A76
:100DF0001A60154B10225A60134B00229A60124B56
:100E00000022DA60104B00221A610F4B00225A6157
:100E10000D4B00221A760C4B00225A760A4B002208
:100E20009A76094B0022DA76074B00221A77064B96
:100E300000225A77044801F031F90346002B01D013
:100E400000F002FA00BF80BD3401002000640040C1
:100E500080B58EB000AF07F1280300221A605A60F7
:100E60009A60DA6007F1200300221A605A603B1D85
:100E700000221A605A609A60DA601A615A619A61B7
:100E8000334B4FF080421A60314B03225A60304B93
:100E900020229A602E4B40F26712DA602C4B00221F
:100EA0001A612B4B00229A61294802F003FC034689
:100EB000002B01D000F0C8F94FF48053BB6207F15A
:100EC00028031946224802F091FF0346002B01D067
:100ED00000F0BAF91E4802F079FD0346002B01D05C
:100EE00000F0B2F900233B6200237B6207F120038C
:100EF0001946174803F0E2FA0346002B01D000F030
:100F0000A3F960237B600023BB600223FB60002306
:100F10007B613B1D002219460D4802F0A9FE0346E5
:100F2000002B01D000F090F90023FB603B1D042250
:100F30001946074802F09CFE0346002B01D000F042
:100F400083F9034800F0AAFA00BF3837BD4680BDD8
:100F50005C01002080B586B000AF07F108030022D5
:100F60001A605A609A60DA603B4600221A605A6042
:100F70001D4B1E4A1A601C4B23225A601A4B00223A
:100F80009A60194B4FF6FF72DA60174B00221A6114
:100F9000154B00229A61144802F08CFB0346002B8B
:100FA00001D000F051F94FF48053BB6007F1080302
:100FB00019460D4802F01AFF0346002B01D000F03D
:100FC00043F900233B6000237B603B4619460648FB
:100FD00003F074FA0346002B01D000F035F900BF8E
:100FE0001837BD4680BD00BFA401002000040040AA
:100FF00080B58AB000AF07F1200300221A605A6062
:101000003B1D00221A605A609A60DA601A615A61C8
:101010009A61204B204A1A601E4B00225A601D4BD9
:1010200000229A601B4B8F22DA601A4B00221A6151
:10103000184B00229A61174802F0D6FB0346002B9A
:1010400001D000F001F900233B6200237B6207F12D
:10105000200319460F4803F031FA0346002B01D054
:1010600000F0F2F830237B600023BB600023FB60BC
:1010700000237B613B1D0C221946064802F0A0FDAF
:101080000346002B01D000F0DFF800BF2837BD4633
:1010900080BD00BFEC0100200008004080B500AF1B
:1010A000114B124A1A60104B4FF4E1325A600E4B4A
:1010B00000229A600C4B0022DA600B4B00221A616E
:1010C000094B0C225A61084B00229A61064B002200
:1010D000DA61054803F050FA0346002B01D000F016
:1010E000B3F800BF80BD00BF3402002000380140CB
:1010F00080B582B000AF0C4B5B690B4A43F0010333
:101100005361094B5B6903F001037B607B6800223C
:1011100002210B2001F095F90B2001F0AEF900BF80
:101120000837BD4680BD00BF0010024080B483B0C8
:1011300000AF0E4B9B690D4A43F0200393610B4BAC
:101140009B6903F020037B607B68084B9B69074A1F
:1011500043F004039361054B9B6903F004033B6078
:101160003B6800BF0C37BD4680BC70470010024092
:1011700080B483B000AF0346FB804FF08042FB8811
:1011800093634FF08043DA6A4FF080439B6B4FF0DC
:101190008041D31A4B6300BF0C37BD4680BC7047FB
:1011A00080B400AF034B5B6A9BB21846BD4680BC5F
:1011B000704700BF0004004080B584B000AF786085
:1011C0007B681B68194A93422BD11948FFF786FCAC
:1011D0000346FB81FB891846FFF7A6FC02460B4637
:1011E0001449C1E90023144803F032FB134BD3E93F
:1011F0000001134BD3E90023FFF766F902460B46C3
:1012000010461946FFF7FAFB03460E4A13600D4BD2
:101210001B681846FFF742FC03469BB21846FFF7CF
:10122000A7FF00BF1037BD4680BD00BF00240140AE
:101230009002002080020020480000208802002048
:10124000080000207802002080B400AF72B600BF12
:10125000FEE7000080B483B000AF0E4B9B690D4ADF
:1012600043F0010393610B4B9B6903F001037B6027
:101270007B68084BDB69074A43F08053D361054B19
:10128000DB6903F080533B603B6800BF0C37BD4611
:1012900080BC70470010024080B588B000AF786015
:1012A00007F1100300221A605A609A60DA607B68C6
:1012B0001B68284A934249D1274B9B69264A43F42D
:1012C00000739361244B9B6903F40073FB60FB681C
:1012D000214B9B69204A43F0040393611E4B9B6999
:1012E00003F00403BB60BB6810233B6103237B61F5
:1012F00007F110031946194801F0C8FA184B194AAA
:101300001A60174B00225A60154B00229A60144B4A
:101310008022DA60124B4FF480721A61104B4FF446
:1013200080625A610E4B20229A610D4B0022DA61D5
:101330000B4801F0BDF80346002B01D0FFF784FFF6
:101340007B68074A1A62064A7B68536200BF2037EF
:10135000BD4680BD0024014000100240000801404D
:10136000F00000200800024080B588B000AF78602F
:1013700007F1100300221A605A609A60DA607B68F5
:101380001B681C4A934231D11B4BDB691A4A43F05C
:101390000073D361184BDB6903F00073FB60FB68DB
:1013A000154B9B69144A43F004039361124B9B69EC
:1013B00003F00403BB60BB684FF400633B61002390
:1013C0007B610023BB6107F1100319460B4801F054
:1013D0005DFA4FF480533B6102237B610323FB6181
:1013E00007F110031946054801F050FA00BF2037F5
:1013F000BD4680BD0064004000100240000801406E
:1014000080B485B000AF78607B681B68B3F1804F13
:101410000CD1114BDB69104A43F00103D3610E4B31
:10142000DB6903F00103FB60FB6810E07B681B686D
:101430000A4A93420BD1084BDB69074A43F0020387
:10144000D361054BDB6903F00203BB60BB6800BFDF
:101450001437BD4680BC70470010024000040040B5
:1014600080B485B000AF78607B681B68094A9342FE
:101470000BD1094BDB69084A43F00403D361064BE7
:10148000DB6903F00403FB60FB6800BF1437BD4653
:1014900080BC7047000800400010024080B588B052
:1014A00000AF786007F1100300221A605A609A605A
:1014B000DA607B681B68B3F1804F17D10D4B9B69D5
:1014C0000C4A43F0040393610A4B9B6903F0040345
:1014D000FB60FB6803233B6102237B610223FB610A
:1014E00007F110031946044801F0D0F900BF203776
:1014F000BD4680BD001002400008014080B588B0A4
:1015000000AF786007F1100300221A605A609A60F9
:10151000DA607B681B681C4A934231D11B4B9B6984
:101520001A4A43F480439361184B9B6903F4804348
:10153000FB60FB68154B9B69144A43F004039361FD
:10154000124B9B6903F00403BB60BB684FF400734C
:101550003B6102237B610323FB6107F11003194602
:101560000B4801F093F94FF480633B6100237B61EA
:101570000023BB6107F110031946054801F086F905
:1015800000BF2037BD4680BD00380140001002403A
:101590000008014080B400AFFEE780B400AFFEE772
:1015A00080B400AFFEE780B400AFFEE780B400AFC8
:1015B000FEE780B400AF00BFBD4680BC704780B47A
:1015C00000AF00BFBD4680BC704780B400AF00BF15
:1015D000BD4680BC704780B500AF00F07FF800BF0B
:1015E00080BD000080B500AF024801F01BF800BFCD
:1015F00080BD00BFF000002080B400AF00BFBD463A
:1016000080BC70470C480D490D4A002302E0D458B5
:10161000C4500433C4188C42F9D30A4A0A4C00233C
:1016200001E013600432A242FBD3FFF7E5FF03F0B1
:10163000ABFBFFF7A1FA7047000000202400002058
:10164000384E000828000020A8020020FEE7000015
:1016500080B500AF084B1B68074A43F010031360C6
:10166000032000F0E3FE0F2000F008F8FFF7F2FD82
:101670000023184680BD00BF0020024080B582B024
:1016800000AF7860124B1A68124B1B7819464FF462
:101690007A73B3FBF1F3B2FBF3F3184600F0FBFEF1
:1016A0000346002B01D001230EE07B680F2B0AD8E4
:1016B000002279684FF0FF3000F0C3FE064A7B68D5
:1016C0001360002300E0012318460837BD4680BDA3
:1016D00018000020200000201C00002080B400AF73
:1016E000054B1B781A46054B1B681344034A1360CD
:1016F00000BFBD4680BC704720000020A40200202F
:1017000080B400AF024B1B681846BD4680BC7047D2
:10171000A402002080B586B000AF78600023FB757E
:1017200000233B610023BB600023FB607B68002B30
:1017300001D10123BEE07B689B68002B7B689B6A1C
:10174000002B09D17B680022DA627B68002283F8D3
:1017500024207868FFF7A0FD786800F04BFB034673
:10176000FB757B689B6A03F01003002B40F09980A7
:10177000FB7D002B40F095807B689B6A23F48853A7
:1017800023F0020343F002027B689A627B685A6886
:101790007B68DB691A437B681B7B5B001343BA6879
:1017A0001343BB607B689B68B3F5807F03D07B6885
:1017B0009B68012B02D14FF4807300E000233A694B
:1017C00013433B617B681B7D012B19D17B681B7B1D
:1017D000002B09D17B689B69013B5A033B6913438A
:1017E00043F400633B610BE07B689B6A43F020029B
:1017F0007B689A627B68DB6A43F001027B68DA628D
:101800007B681B685B6823F469417B681B683A69E5
:101810000A435A607B681B689A68284B13407A68B1
:101820001268B9680B4393607B689B68B3F5807F4F
:1018300003D07B689B68012B04D17B681B69013B4B
:101840001B05FB607B681B68DB6A23F470017B6807
:101850001B68FA680A43DA627B681B689A68184B4F
:101860001340BA689A420BD17B680022DA627B6827
:101870009B6A23F0030343F001027B689A6218E03D
:101880007B689B6A23F0120343F010027B689A6224
:101890007B68DB6A43F001027B68DA620123FB7537
:1018A00007E07B689B6A43F010027B689A62012321
:1018B000FB75FB7D18461837BD4680BDFDF7E1FF7F
:1018C000FE0E1FFF80B586B000AFF860B9607A6089
:1018D0000023FB75FB681B68644A934204D0FB68D5
:1018E0001B68634A934206D1604B5B6803F4702324
:1018F000002B40F0B380FB6893F82430012B01D11A
:101900000223AEE0FB68012283F82420F86800F08F
:1019100017FA0346FB75FB7D002B40F09A80FB68AD
:101920009B6A23F4706323F0010343F48072FB6825
:101930009A62FB681B684E4A934205D14B4B5B6829
:1019400003F47023002B15D1FB689B6A23F48012EB
:10195000FB689A62FB681B685B6803F48063002B7A
:1019600026D0FB689B6A23F4405343F48052FB6803
:101970009A621DE0FB689B6A43F48012FB689A62DE
:10198000FB681B68394A934204D0FB681B68384ADD
:1019900093420DD1354B5B6803F48063002B07D075
:1019A000FB689B6A23F4405343F48052FB689A62BD
:1019B000FB689B6A03F48053002B06D0FB68DB6A4C
:1019C00023F00602FB68DA6202E0FB680022DA62BA
:1019D000FB68002283F82420FB681B6A254A9A6270
:1019E000FB681B6A244ADA62FB681B6A234A1A6393
:1019F000FB681B686FF002021A60FB681B689A683C
:101A0000FB681B6842F480729A60FB68186AFB6886
:101A10001B684C331946BA687B6800F0A3FDFB686D
:101A20001B689B6803F46023B3F5602F08D1FB6843
:101A30001B689A68FB681B6842F4A0029A600FE07A
:101A4000FB681B689A68FB681B6842F480129A6006
:101A500006E0FB68002283F8242001E00123FB75E7
:101A6000FB7D18461837BD4680BD00BF00240140ED
:101A700000280140771E0008F31E00080F1F000811
:101A800080B483B000AF786000BF0C37BD4680BC27
:101A9000704780B483B000AF786000BF0C37BD469C
:101AA00080BC704780B485B000AF78603960002397
:101AB000FB730023BB607B6893F82430012B01D1BA
:101AC0000223DCE07B68012283F824203B685B680A
:101AD000062B1CD87B681B68596B3B685A681346F9
:101AE0009B001344053B1F2202FA03F3DB4319401A
:101AF0003B6818683B685A6813469B001344053BD3
:101B000000FA03F27B681B680A435A633CE03B68B7
:101B10005B680C2B1CD87B681B68196B3B685A6888
:101B200013469B001344233B1F2202FA03F3DB43BB
:101B300019403B6818683B685A6813469B00134479
:101B4000233B00FA03F27B681B680A431A631BE01D
:101B50007B681B68D96A3B685A6813469B0013442C
:101B6000413B1F2202FA03F3DB4319403B6818682C
:101B70003B685A6813469B001344413B00FA03F24A
:101B80007B681B680A43DA623B681B68092B1CD917
:101B90007B681B68D9683B681A6813465B0013446E
:101BA0001E3B072202FA03F3DB4319403B689868A7
:101BB0003B681A6813465B0013441E3B00FA03F2AD
:101BC0007B681B680A43DA6019E07B681B68196947
:101BD0003B681A6813465B001344072202FA03F3BA
:101BE000DB4319403B6898683B681A6813465B0002
:101BF000134400FA03F27B681B680A431A613B68CE
:101C00001B68102B03D03B681B68112B32D17B68FB
:101C10001B681D4A934225D17B681B689B6803F4AF
:101C20000003002B26D17B681B689A687B681B68C1
:101C300042F400029A603B681B68102B1AD1134BC8
:101C40001B68134AA2FB03239A0C13469B00134400
:101C50005B00BB6002E0BB68013BBB60BB68002B64
:101C6000F9D107E07B689B6A43F020027B689A62A7
:101C70000123FB737B68002283F82420FB7B18463A
:101C80001437BD4680BC7047002401401800002076
:101C900083DE1B4380B483B000AF786039603B685B
:101CA0001B68244A934203D03B681B68224A934234
:101CB0007B6893F82430012B01D1022335E07B6847
:101CC000012283F824203B681B7A012B08D17B6812
:101CD0001B685A687B681B6842F040025A6007E044
:101CE0007B681B685A687B681B6822F040025A6058
:101CF0007B681B685A68114B13403A6811683A6850
:101D0000526811437A6812680B4353607B681B6802
:101D10003A68D2685A627B681B683A6812699A62AC
:101D20007B68002283F82420002318460C37BD4628
:101D300080BC70470002800000024000E0FD3FFFD1
:101D400080B584B000AF78600023FB600023BB60E7
:101D50007B681B689B6803F00103012B40D07B6804
:101D60001B689A687B681B6842F001029A601F4BEF
:101D70001B681F4AA2FB03239B0CBB6002E0BB68ED
:101D8000013BBB60BB68002BF9D1FFF7B9FCF860E1
:101D90001FE0FFF7B5FC0246FB68D31A022B18D9E7
:101DA0007B681B689B6803F00103012B11D07B68E3
:101DB0009B6A43F010027B689A627B68DB6A43F09F
:101DC00001027B68DA627B68002283F82420012309
:101DD00007E07B681B689B6803F00103012BD8D1E7
:101DE000002318461037BD4680BD00BF18000020F4
:101DF00083DE1B4380B584B000AF78600023FB60B6
:101E00007B681B689B6803F00103012B2ED17B6864
:101E10001B689A687B681B6822F001029A60FFF7D2
:101E20006FFCF8601BE0FFF76BFC0246FB68D31AFF
:101E3000022B14D97B681B689B6803F00103012BFC
:101E40000DD17B689B6A43F010027B689A627B68C5
:101E5000DB6A43F001027B68DA62012307E07B68FA
:101E60001B689B6803F00103012BDCD0002318469C
:101E70001037BD4680BD80B584B000AF78607B6808
:101E80005B6AFB60FB689B6A03F05003002B27D161
:101E9000FB689B6A43F40072FB689A62FB681B68EC
:101EA0009B6803F46023B3F5602F15D1FB681B7B9F
:101EB000002B11D1FB689B6A23F48072FB689A6245
:101EC000FB689B6A03F48053002B05D1FB689B6A77
:101ED00043F00102FB689A62F868FFF76DF904E0CD
:101EE000FB681B6A1B6B7868984700BF1037BD46BC
:101EF00080BD80B584B000AF78607B685B6AFB60B2
:101F0000F868FFF7BDFD00BF1037BD4680BD80B546
:101F100084B000AF78607B685B6AFB60FB689B6A9B
:101F200043F04002FB689A62FB68DB6A43F00402FC
:101F3000FB68DA62F868FFF7ACFD00BF1037BD46FA
:101F400080BD000090B587B000AF78600023FB75BE
:101F50000023FB607B6893F82430012B01D102231E
:101F600095E07B68012283F824207868FFF742FF20
:101F70000346FB75FB7D002B40F084807B689B6AE9
:101F800023F4885323F0020343F002027B689A6231
:101F9000414B1C68022001F0CDFA0346B4FBF3F379
:101FA0005B00FB6002E0FB68013BFB60FB68002B11
:101FB000F9D17868FFF7C4FE7B681B689A687B6874
:101FC0001B6842F008029A60FFF79AFB38611BE039
:101FD000FFF796FB02463B69D31A0A2B14D97B689C
:101FE0001B689B6803F00803002B0DD07B689B6A7D
:101FF00023F0120343F010027B689A627B68002290
:1020000083F82420012342E07B681B689B6803F06F
:102010000803002BDCD17B681B689A687B681B680F
:1020200042F004029A60FFF76BFB38611BE0FFF798
:1020300067FB02463B69D31A0A2B14D97B681B68DD
:102040009B6803F00403002B0DD07B689B6A23F090
:10205000120343F010027B689A627B68002283F8C7
:102060002420012313E07B681B689B6803F00403B2
:10207000002BDCD17B689B6A23F0030343F0010251
:102080007B689A627B68002283F82420FB7D1846D7
:102090001C37BD4690BD00BF1800002080B584B03D
:1020A00000AF78607B68002B01D10123EDE07B68F5
:1020B00093F82030DBB2002B02D17868FFF754F997
:1020C0007B681B681A687B681B6842F001021A6013
:1020D000FFF716FBF86012E0FFF712FB0246FB6801
:1020E000D31A0A2B0BD97B685B6A43F400327B68F6
:1020F0005A627B68052283F820200123C5E07B68B3
:102100001B685B6803F00103002BE5D07B681B684C
:102110001A687B681B6822F002021A60FFF7F0FA67
:10212000F86012E0FFF7ECFA0246FB68D31A0A2BBC
:102130000BD97B685B6A43F400327B685A627B6828
:10214000052283F8202001239FE07B681B685B68E1
:1021500003F00203002BE5D17B681B7E012B08D125
:102160007B681B681A687B681B6842F080021A60F3
:1021700007E07B681B681A687B681B6822F0800296
:102180001A607B685B7E012B08D17B681B681A682C
:102190007B681B6842F040021A6007E07B681B689E
:1021A0001A687B681B6822F040021A607B689B7E7D
:1021B000012B08D17B681B681A687B681B6842F09A
:1021C00020021A6007E07B681B681A687B681B683E
:1021D00022F020021A607B68DB7E012B08D17B682D
:1021E0001B681A687B681B6822F010021A6007E0FF
:1021F0007B681B681A687B681B6842F010021A60D3
:102200007B681B7F012B08D17B681B681A687B6881
:102210001B6842F008021A6007E07B681B681A68B6
:102220007B681B6822F008021A607B685B7F012BC9
:1022300008D17B681B681A687B681B6842F004023F
:102240001A6007E07B681B681A687B681B6822F0CD
:1022500004021A607B689A687B68DB681A437B68B3
:102260001B691A437B685B6942EA03017B685B6810
:102270005A1E7B681B680A43DA617B6800225A6237
:102280007B68012283F82020002318461037BD46C2
:1022900080BD000080B485B000AF78607B6803F03B
:1022A0000703FB600C4BDB68BB60BA684FF6FF03AB
:1022B0001340BB60FB681A02BB68134343F0BF6363
:1022C00043F40033BB60044ABB68D36000BF1437DB
:1022D000BD4680BC704700BF00ED00E080B400AF99
:1022E000044BDB681B0A03F007031846BD4680BC9D
:1022F000704700BF00ED00E080B483B000AF03463C
:10230000FB7197F90730002B0BDBFB7903F01F0201
:10231000064997F907305B09012000FA02F241F8FB
:10232000232000BF0C37BD4680BC704700E100E0B1
:1023300080B483B000AF03463960FB7197F9073072
:10234000002B0ADB3B68DAB20C4997F9073012011F
:10235000D2B20B4483F800230AE03B68DAB20849A2
:10236000FB7903F00F03043B1201D2B20B441A763F
:1023700000BF0C37BD4680BC704700BF00E100E0E5
:1023800000ED00E080B489B000AFF860B9607A6019
:10239000FB6803F00703FB61FB69C3F10703042B30
:1023A00028BF0423BB61FB690433062B02D9FB69F8
:1023B000033B00E000237B614FF0FF32BB6902FA70
:1023C00003F3DA43BB681A407B699A404FF0FF3150
:1023D0007B6901FA03F3D9437B680B40134318462A
:1023E0002437BD4680BC704780B582B000AF7860AE
:1023F0007B68013BB3F1807F01D301230FE00A4AE0
:102400007B68013B53600F214FF0FF30FFF790FFD7
:10241000054B00229A60044B07221A6000231846DD
:102420000837BD4680BD00BF10E000E080B582B037
:1024300000AF78607868FFF72DFF00BF0837BD4612
:1024400080BD80B586B000AF0346B9607A60FB738B
:1024500000237B61FFF742FF78617A68B968786989
:10246000FFF790FF024697F90F3011461846FFF725
:102470005FFF00BF1837BD4680BD80B582B000AF9A
:102480000346FB7197F907301846FFF735FF00BF89
:102490000837BD4680BD80B582B000AF78607868EF
:1024A000FFF7A2FF034618460837BD4680BD00006F
:1024B00080B485B000AF78600023FB607B68002BA0
:1024C00001D1012343E07B681B681A46224B134469
:1024D000224AA2FB03231B099A007B681A647B68CB
:1024E0001F4ADA637B68022283F821207B681B681D
:1024F0001B68FB60FB6823F47F5323F03003FB6011
:102500007B685A687B689B681A437B68DB681A4360
:102510007B681B691A437B685B691A437B689B690C
:102520001A437B68DB691343FA681343FB607B68DB
:102530001B68FA681A607B6800229A637B68012234
:1025400083F821207B68002283F82020002318468E
:102550001437BD4680BC7047F8FFFDBFCDCCCCCC56
:102560000000024080B586B000AFF860B9607A60C4
:102570003B600023FB75FB6893F82030012B01D1F1
:1025800002234AE0FB68012283F82020FB6893F8CD
:102590002130012B3AD1FB68022283F82120FB680D
:1025A00000229A63FB681B681A68FB681B6822F0AC
:1025B00001021A603B687A68B968F86800F038F977
:1025C000FB68DB6A002B08D0FB681B681A68FB6895
:1025D0001B6842F00E021A600FE0FB681B681A6865
:1025E000FB681B6822F004021A60FB681B681A680B
:1025F000FB681B6842F00A021A60FB681B681A68D5
:10260000FB681B6842F001021A6005E0FB680022CB
:1026100083F820200223FB75FB7D18461837BD4642
:1026200080BD000080B584B000AF78607B68DB6B54
:102630001B68FB607B681B681B68BB607B681B6C4E
:1026400004229A40FB681340002B4FD0BB6803F074
:102650000403002B4AD07B681B681B6803F020032F
:10266000002B07D17B681B681A687B681B6822F007
:1026700004021A607B681B68664A934229D07B6813
:102680001B68654A934222D07B681B68634A934269
:102690001AD07B681B68624A934212D07B681B6821
:1026A000604A93420AD07B681B685F4A934202D11A
:1026B0004FF480030EE04FF080630BE04FF4802373
:1026C00008E04FF4804305E04FF4806302E04023CC
:1026D00000E00423554A53607B68DB6A002B00F05E
:1026E00094807B68DB6A786898478EE07B681B6C17
:1026F00002229A40FB681340002B56D0BB6803F0BF
:102700000203002B51D07B681B681B6803F0200379
:10271000002B0BD17B681B681A687B681B6822F052
:102720000A021A607B68012283F821207B681B68FB
:10273000384A934229D07B681B68374A934222D09B
:102740007B681B68354A93421AD07B681B68344A01
:10275000934212D07B681B68324A93420AD07B684E
:102760001B68314A934202D14FF400130EE04FF040
:1027700000730BE04FF4003308E04FF4005305E022
:102780004FF4007302E0202300E00223274A536045
:102790007B68002283F820207B689B6A002B34D062
:1027A0007B689B6A786898472FE07B681B6C0822DF
:1027B0009A40FB681340002B28D0BB6803F0080345
:1027C000002B23D07B681B681A687B681B6822F08B
:1027D0000E021A607B681A6C7B68DB6B012101FAC0
:1027E00002F25A607B6801229A637B68012283F8B7
:1027F00021207B68002283F820207B681B6B002B44
:1028000004D07B681B6B7868984700BF00BF103707
:10281000BD4680BD080002401C000240300002405E
:1028200044000240580002406C0002400000024098
:1028300080B485B000AFF860B9607A603B60FB6837
:102840001A6CFB68DB6B012101FA02F25A60FB682B
:102850001B683A685A60FB685B68102B08D1FB68FC
:102860001B687A689A60FB681B68BA68DA6007E0E0
:10287000FB681B68BA689A60FB681B687A68DA6054
:1028800000BF1437BD4680BC7047000080B48BB0D9
:1028900000AF7860396000237B6200233B6269E10E
:1028A00001227B6A02FA03F3FB613B681B68FA6949
:1028B0001340BB61BA69FB699A4240F058813B689A
:1028C0005B689A4A93425ED0984A934275D8984A78
:1028D000934258D0964A93426FD8964A934252D028
:1028E000944A934269D8944A93424CD0924A934274
:1028F00063D8924A934246D0904A93425DD8122BB5
:102900002AD8122B59D801A252F823F0872900089F
:102910006129000873290008B5290008BB290008AF
:10292000BB290008BB290008BB290008BB290008F7
:10293000BB290008BB290008BB290008BB290008E7
:10294000BB290008BB290008BB290008BB290008D7
:10295000692900087D290008794A934213D02CE0A8
:102960003B68DB683B6229E03B68DB6804333B6221
:1029700024E03B68DB6808333B621FE03B68DB68B0
:102980000C333B621AE03B689B68002B02D10423A6
:102990003B6213E03B689B68012B05D108233B6237
:1029A0007B68FA691A6109E008233B627B68FA696F
:1029B0005A6103E000233B6200E000BFBB69FF2BCC
:1029C00001D87B6801E07B6804337B61BB69FF2B26
:1029D00002D87B6A9B0002E07B6A083B9B003B615C
:1029E0007B691A680F213B6901FA03F3DB431A4044
:1029F000396A3B6901FA03F31A437B691A603B6841
:102A00005B6803F08053002B00F0B1804D4B9B6955
:102A10004C4A43F0010393614A4B9B6903F0010365
:102A2000BB60BB68484A7B6A9B08023352F823307C
:102A3000FB607B6A03F003039B000F2202FA03F39F
:102A4000DB43FA681340FB607B68404A934213D033
:102A50007B683F4A93420DD07B683E4A934207D041
:102A60007B683D4A934201D1032306E0042304E03E
:102A7000022302E0012300E000237A6A02F003024D
:102A800092009340FA681343FB602F497B6A9B08CE
:102A90000233FA6841F823203B685B6803F4803313
:102AA000002B06D02D4B1A682C49BB6913430B60D1
:102AB00006E02A4B1A68BB69DB43284913400B60C8
:102AC0003B685B6803F40033002B06D0234B5A6845
:102AD0002249BB6913434B6006E0204B5A68BB692F
:102AE000DB431E4913404B603B685B6803F4801373
:102AF000002B06D0194B9A681849BB6913438B60A9
:102B000006E0164B9A68BB69DB43144913408B609F
:102B10003B685B6803F40013002B21D00F4BDA688D
:102B20000E49BB691343CB6021E000BF00003210A7
:102B300000003110000022100000211000001210CF
:102B40000000111000100240000001400008014088
:102B5000000C01400010014000140140000401403D
:102B60000B4BDA68BB69DB4309491340CB607B6AD6
:102B700001337B623B681A687B6A22FA03F3002BFD
:102B80007FF48EAE00BF00BF2C37BD4680BC7047BF
:102B90000004014080B586B000AF78607B68002BF0
:102BA00001D1012372E27B681B6803F00103002B53
:102BB00000F08780924B5B6803F00C03042B0CD071
:102BC0008F4B5B6803F00C03082B12D18C4B5B68B6
:102BD00003F48033B3F5803F0BD1894B1B6803F4BA
:102BE0000033002B6CD07B685B68002B68D101231D
:102BF0004CE27B685B68B3F5803F06D1804B1B6875
:102C00007F4A43F4803313602EE07B685B68002BBF
:102C10000CD17B4B1B687A4A23F480331360784BCA
:102C20001B68774A23F4802313601DE07B685B6890
:102C3000B3F5A02F0CD1724B1B68714A43F480236B
:102C400013606F4B1B686E4A43F4803313600BE0D4
:102C50006B4B1B686A4A23F480331360684B1B6814
:102C6000674A23F4802313607B685B68002B13D0D2
:102C7000FEF746FD386108E0FEF742FD02463B697B
:102C8000D31A642B01D9032300E25D4B1B6803F4C4
:102C90000033002BF0D014E0FEF732FD386108E07D
:102CA000FEF72EFD02463B69D31A642B01D903239C
:102CB000ECE1534B1B6803F40033002BF0D100E030
:102CC00000BF7B681B6803F00203002B63D04C4BF2
:102CD0005B6803F00C03002B0BD0494B5B6803F0DF
:102CE0000C03082B1CD1464B5B6803F48033002B8C
:102CF00016D1434B1B6803F00203002B05D07B6801
:102D00001B69012B01D00123C0E13D4B1B6823F05F
:102D1000F8027B685B69DB00394913430B603AE0DA
:102D20007B681B69002B20D0364B01221A60FEF70E
:102D3000E7FC386108E0FEF7E3FC02463B69D31A82
:102D4000022B01D90323A1E12D4B1B6803F00203E1
:102D5000002BF0D02A4B1B6823F0F8027B685B69DC
:102D6000DB00274913430B6015E0264B00221A6055
:102D7000FEF7C6FC386108E0FEF7C2FC02463B697C
:102D8000D31A022B01D9032380E11D4B1B6803F0EA
:102D90000203002BF0D17B681B6803F00803002BB3
:102DA0003AD07B689B69002B19D0174B01221A601F
:102DB000FEF7A6FC386108E0FEF7A2FC02463B697C
:102DC000D31A022B01D9032360E10D4B5B6A03F098
:102DD0000203002BF0D0012000F0D8FA1CE00A4BCF
:102DE00000221A60FEF78CFC38610FE0FEF788FCC9
:102DF00002463B69D31A022B08D9032346E100BFE0
:102E0000001002400000424280044242924B5B6A42
:102E100003F00203002BE9D17B681B6803F0040375
:102E2000002B00F0A6800023FB758B4BDB6903F0C1
:102E30008053002B0DD1884BDB69874A43F08053C8
:102E4000D361854BDB6903F08053BB60BB68012312
:102E5000FB75824B1B6803F48073002B18D17F4BEA
:102E60001B687E4A43F480731360FEF749FC3861A7
:102E700008E0FEF745FC02463B69D31A642B01D9F2
:102E8000032303E1754B1B6803F48073002BF0D020
:102E90007B68DB68012B06D16F4B1B6A6E4A43F0DF
:102EA000010313622DE07B68DB68002B0CD16A4BB9
:102EB0001B6A694A23F001031362674B1B6A664A67
:102EC00023F0040313621CE07B68DB68052B0CD144
:102ED000614B1B6A604A43F0040313625E4B1B6A3A
:102EE0005D4A43F0010313620BE05B4B1B6A5A4AD5
:102EF00023F001031362584B1B6A574A23F0040363
:102F000013627B68DB68002B15D0FEF7F9FB386194
:102F10000AE0FEF7F5FB02463B69D31A41F288321C
:102F2000934201D90323B1E04B4B1B6A03F0020328
:102F3000002BEED014E0FEF7E3FB38610AE0FEF769
:102F4000DFFB02463B69D31A41F28832934201D932
:102F500003239BE0404B1B6A03F00203002BEED1DE
:102F6000FB7D012B05D13C4BDB693B4A23F08053B1
:102F7000D3617B68DB69002B00F08780364B5B6890
:102F800003F00C03082B61D07B68DB69022B46D170
:102F9000334B00221A60FEF7B3FB386108E0FEF7FE
:102FA000AFFB02463B69D31A022B01D903236DE024
:102FB000294B1B6803F00073002BF0D17B681B6A60
:102FC000B3F5803F08D1244B5B6823F400327B6863
:102FD0009B68214913434B601F4B5B6823F47412B9
:102FE0007B68196A7B685B6A0B431B4913434B6020
:102FF0001B4B01221A60FEF783FB386108E0FEF7E5
:103000007FFB02463B69D31A022B01D903233DE023
:10301000114B1B6803F00073002BF0D035E0104B10
:1030200000221A60FEF76CFB386108E0FEF768FBCF
:1030300002463B69D31A022B01D9032326E0064B33
:103040001B6803F00073002BF0D11EE07B68DB6986
:10305000012B07D1012319E000100240007000404D
:10306000600042420B4B5B68FB60FB6803F48032FC
:103070007B681B6A9A4206D1FB6803F470127B6876
:103080005B6A9A4201D0012300E0002318461837FA
:10309000BD4680BD0010024080B584B000AF7860AE
:1030A00039607B68002B01D10123D0E06A4B1B689B
:1030B00003F007033A689A4210D9674B1B6823F064
:1030C000070265493B6813430B60634B1B6803F0C1
:1030D00007033A689A4201D00123B8E07B681B6875
:1030E00003F00203002B20D07B681B6803F004036D
:1030F000002B05D0594B5B68584A43F4E06353609A
:103100007B681B6803F00803002B05D0534B5B68FA
:10311000524A43F460535360504B5B6823F0F00213
:103120007B689B684D4913434B607B681B6803F0C9
:103130000103002B40D07B685B68012B07D1474B14
:103140001B6803F40033002B15D101237FE07B685B
:103150005B68022B07D1414B1B6803F00073002B07
:1031600009D1012373E03D4B1B6803F00203002BE0
:1031700001D101236BE0394B5B6823F003027B68CC
:103180005B68364913434B60FEF7BAFAF8600AE011
:10319000FEF7B6FA0246FB68D31A41F28832934230
:1031A00001D9032353E02D4B5B6803F00C027B68CD
:1031B0005B689B009A42EBD1274B1B6803F0070327
:1031C0003A689A4210D2244B1B6823F00702224926
:1031D0003B6813430B60204B1B6803F007033A68FE
:1031E0009A4201D0012332E07B681B6803F004039C
:1031F000002B08D0194B5B6823F4E0627B68DB6826
:10320000164913434B607B681B6803F00803002BCF
:1032100009D0124B5B6823F460527B681B69DB00AA
:103220000E4913434B6000F021F802460B4B5B68DC
:103230001B0903F00F030A49CB5C22FA03F3094A86
:103240001360094B1B681846FEF718FA002318464E
:103250001037BD4680BD00BF002002400010024074
:10326000184E0008180000201C00002090B48AB0FE
:1032700000AF294B3C1D0FCB84E80F0040F2012327
:103280003B800023FB610023BB6100237B620023A2
:103290007B6100233B62214B5B68FB61FB6903F0B0
:1032A0000C03042B02D0082B03D02BE01C4B3B62F9
:1032B0002BE0FB699B0C03F00F0328333B4413F80E
:1032C000243C7B61FB6903F48033002B12D0134B49
:1032D0005B685B0C03F0010328333B4413F8283C84
:1032E000BB617B690E4A03FB02F2BB69B2FBF3F3DD
:1032F0007B6204E07B690B4A02FB03F37B627B6A1F
:103300003B6202E0064B3B6200BF3B6A184628372F
:10331000BD4690BC704700BFF84D00080010024049
:1033200000127A0000093D0080B400AF024B1B6818
:103330001846BD4680BC70471800002080B500AF1D
:10334000FFF7F2FF0246054B5B681B0A03F0070319
:103350000349CB5C22FA03F3184680BD00100240FB
:10336000284E000880B500AFFFF7DEFF0246054B90
:103370005B68DB0A03F007030349CB5C22FA03F323
:10338000184680BD00100240284E000880B485B069
:1033900000AF78600A4B1B680A4AA2FB03235B0A52
:1033A0007A6802FB03F3FB6000BFFB685A1EFA60F9
:1033B000002BF9D100BF00BF1437BD4680BC704759
:1033C00018000020D34D621080B586B000AF786041
:1033D00000233B610023FB607B681B6803F0010353
:1033E000002B7DD00023FB754F4BDB6903F080532E
:1033F000002B0DD14C4BDB694B4A43F08053D3611A
:10340000494BDB6903F08053BB60BB680123FB754C
:10341000464B1B6803F48073002B18D1434B1B6889
:10342000424A43F480731360FEF76AF9386108E09A
:10343000FEF766F902463B69D31A642B01D90323D0
:103440006DE03A4B1B6803F48073002BF0D0364BD1
:103450001B6A03F44073FB60FB68002B2ED07B6873
:103460005B6803F44073FA689A4227D02E4B1B6ABC
:1034700023F44073FB602E4B01221A602C4B002278
:103480001A60294AFB681362FB6803F00103002BF2
:1034900014D0FEF735F938610AE0FEF731F902463B
:1034A0003B69D31A41F28832934201D9032336E0B3
:1034B0001D4B1B6A03F00203002BEED01A4B1B6A54
:1034C00023F440727B685B68174913430B62FB7DF2
:1034D000012B05D1144BDB69134A23F08053D361D0
:1034E0007B681B6803F00203002B08D00E4B5B685F
:1034F00023F440427B689B680B4913434B607B6815
:103500001B6803F01003002B08D0074B5B6823F403
:1035100080027B68DB68044913434B600023184634
:103520001837BD4680BD00BF00100240007000404B
:103530004004424290B58DB000AF7860584B07F11F
:103540000C040FCB84E80F0040F201233B810023E1
:103550007B620023FB6200233B620023FB610023AC
:10356000BB627B68102B0AD07B68102B00F28E8028
:103570007B68012B49D07B68022B79D086E0494BD0
:103580005B68FB61474B1B6803F08073002B7FD0A7
:10359000FB699B0C03F00F0330333B4413F8243CCE
:1035A0003B62FB6903F48033002B17D03D4B5B6813
:1035B0005B0C03F0010330333B4413F8283C7B627F
:1035C000FB6903F48033002B0DD0374A7B6AB2FBD2
:1035D000F3F23B6A02FB03F3FB6204E03B6A334A0B
:1035E00002FB03F3FB622F4B5B6803F48003B3F52C
:1035F000800F02D1FB6ABB624AE0FB6A5B002C4A87
:10360000A2FB03235B08BB6242E0264B1B6AFB6103
:10361000FB6903F44073B3F5807F08D1FB6903F0C5
:103620000203002B03D04FF40043BB621FE0FB6991
:1036300003F44073B3F5007F09D11A4B5B6A03F0C2
:103640000203002B03D049F64043BB620FE0FB6945
:1036500003F44073B3F5407F1CD1124B1B6803F495
:103660000033002B16D04FF22443BB6212E011E06E
:10367000FFF778FE02460B4B5B689B0B03F00303DE
:1036800001335B00B2FBF3F3BB6204E000BF02E076
:1036900000BF00E000BFBB6A18463437BD4690BD8E
:1036A000084E00080010024000127A0000093D0098
:1036B000ABAAAAAA80B582B000AF78607B68002B65
:1036C00001D1012341E07B6893F83D30DBB2002B50
:1036D00006D17B68002283F83C207868FDF790FED5
:1036E0007B68022283F83D207B681A687B6804337C
:1036F0001946104600F03EFC7B68012283F8462004
:103700007B68012283F83E207B68012283F83F20FA
:103710007B68012283F840207B68012283F84120E6
:103720007B68012283F842207B68012283F84320D2
:103730007B68012283F844207B68012283F84520BE
:103740007B68012283F83D20002318460837BD46D8
:1037500080BD000080B485B000AF78607B6893F8CE
:103760003D30DBB2012B01D0012332E07B68022225
:1037700083F83D207B681B68184A93420ED07B6813
:103780001B68B3F1804F09D07B681B68144A9342D1
:1037900004D07B681B68134A934211D17B681B6875
:1037A0009B6803F00703FB60FB68062B10D07B6867
:1037B0001B681A687B681B6842F001021A6007E008
:1037C0007B681B681A687B681B6842F001021A60FC
:1037D000002318461437BD4680BC7047002C0140BA
:1037E000000400400008004080B582B000AF78605F
:1037F0007B68002B01D1012341E07B6893F83D30C9
:10380000DBB2002B06D17B68002283F83C2078686D
:10381000FDF726FE7B68022283F83D207B681A684C
:103820007B6804331946104600F0A4FB7B68012234
:1038300083F846207B68012283F83E207B680122C2
:1038400083F83F207B68012283F840207B680122B7
:1038500083F841207B68012283F842207B680122A3
:1038600083F843207B68012283F844207B6801228F
:1038700083F845207B68012283F83D200023184609
:103880000837BD4680BD000080B584B000AF7860C9
:1038900039603B68002B09D17B6893F83E30DBB27E
:1038A000012B14BF01230023DBB222E03B68042B71
:1038B00009D17B6893F83F30DBB2012B14BF0123A1
:1038C0000023DBB215E03B68082B09D17B6893F835
:1038D0004030DBB2012B14BF01230023DBB208E030
:1038E0007B6893F84130DBB2012B14BF0123002326
:1038F000DBB2002B01D001235EE03B68002B04D13A
:103900007B68022283F83E2013E03B68042B04D13D
:103910007B68022283F83F200BE03B68082B04D130
:103920007B68022283F8402003E07B68022283F850
:1039300041207B681B6801223968184600F09AFD17
:103940007B681B681E4A934207D17B681B685A6CD0
:103950007B681B6842F400425A647B681B68184A03
:1039600093420ED07B681B68B3F1804F09D07B680F
:103970001B68144A934204D07B681B68124A934226
:1039800011D17B681B689B6803F00703FB60FB6831
:10399000062B10D07B681B681A687B681B6842F096
:1039A00001021A6007E07B681B681A687B681B6865
:1039B00042F001021A60002318461037BD4680BD50
:1039C000002C0140000400400008004080B582B097
:1039D00000AF78607B68002B01D1012341E07B6858
:1039E00093F83D30DBB2002B06D17B68002283F8D0
:1039F0003C20786800F039F87B68022283F83D208B
:103A00007B681A687B6804331946104600F0B2FAE6
:103A10007B68012283F846207B68012283F83E20E0
:103A20007B68012283F83F207B68012283F84020D5
:103A30007B68012283F841207B68012283F84220C1
:103A40007B68012283F843207B68012283F84420AD
:103A50007B68012283F845207B68012283F83D20A2
:103A6000002318460837BD4680BD80B483B000AF40
:103A7000786000BF0C37BD4680BC704780B584B00D
:103A800000AF786039603B68002B09D17B6893F800
:103A90003E30DBB2012B14BF01230023DBB222E056
:103AA0003B68042B09D17B6893F83F30DBB2012BD4
:103AB00014BF01230023DBB215E03B68082B09D1BA
:103AC0007B6893F84030DBB2012B14BF0123002345
:103AD000DBB208E07B6893F84130DBB2012B14BF06
:103AE00001230023DBB2002B01D001235EE03B6801
:103AF000002B04D17B68022283F83E2013E03B6850
:103B0000042B04D17B68022283F83F200BE03B6842
:103B1000082B04D17B68022283F8402003E07B68F5
:103B2000022283F841207B681B680122396818460D
:103B300000F0A0FC7B681B681E4A934207D17B689B
:103B40001B685A6C7B681B6842F400425A647B68AD
:103B50001B68184A93420ED07B681B68B3F1804FF4
:103B600009D07B681B68144A934204D07B681B68A9
:103B7000124A934211D17B681B689B6803F00703CC
:103B8000FB60FB68062B10D07B681B681A687B689B
:103B90001B6842F001021A6007E07B681B681A6824
:103BA0007B681B6842F001021A6000231846103738
:103BB000BD4680BD002C01400004004000080040CC
:103BC00080B584B000AFF860B9607A60FB6893F8A4
:103BD0003C30012B01D1022346E0FB68012283F82F
:103BE0003C207B680C2B39D801A252F823F000BF8F
:103BF000253C00085D3C00085D3C00085D3C000879
:103C0000333C00085D3C00085D3C00085D3C00085A
:103C1000413C00085D3C00085D3C00085D3C00083C
:103C20004F3C0008FB681B68B968184600F004FAAE
:103C300015E0FB681B68B968184600F063FA0EE0EF
:103C4000FB681B68B968184600F0C6FA07E0FB6815
:103C50001B68B968184600F029FB00E000BFFB684C
:103C6000002283F83C20002318461037BD4680BD53
:103C700080B584B000AFF860B9607A60FB6893F8F3
:103C80003C30012B01D10223ACE0FB68012283F818
:103C90003C207B680C2B00F29F8001A252F823F09D
:103CA000D53C0008D93D0008D93D0008D93D0008A1
:103CB000153D0008D93D0008D93D0008D93D000850
:103CC000573D0008D93D0008D93D0008D93D0008FE
:103CD000973D0008FB681B68B968184600F0ACF90E
:103CE000FB681B689A69FB681B6842F008029A61CE
:103CF000FB681B689A69FB681B6822F004029A61E2
:103D0000FB681B689969BB681A69FB681B680A43F2
:103D10009A6162E0FB681B68B968184600F0F2F926
:103D2000FB681B689A69FB681B6842F400629A6131
:103D3000FB681B689A69FB681B6822F480629A61C1
:103D4000FB681B689969BB681B691A02FB681B68E2
:103D50000A439A6141E0FB681B68B968184600F0A5
:103D60003BFAFB681B68DA69FB681B6842F00802D3
:103D7000DA61FB681B68DA69FB681B6822F00402E1
:103D8000DA61FB681B68D969BB681A69FB681B6844
:103D90000A43DA6121E0FB681B68B968184600F045
:103DA00085FAFB681B68DA69FB681B6842F40062ED
:103DB000DA61FB681B68DA69FB681B6822F48062C1
:103DC000DA61FB681B68D969BB681B691A02FB686A
:103DD0001B680A43DA6100E000BFFB68002283F839
:103DE0003C20002318461037BD4680BD80B584B006
:103DF00000AF786039607B6893F83C30012B01D1CB
:103E00000223B3E07B68012283F83C207B68022216
:103E100083F83D207B681B689B68FB60FB6823F090
:103E20007703FB60FB6823F47F43FB607B681B68C0
:103E3000FA689A603B681B68B3F5005F3ED0B3F543
:103E4000005F00F28780B3F5805F00F08580B3F5F6
:103E5000805F7FD8702B1AD0702B7BD8602B50D00E
:103E6000602B77D8502B3CD0502B73D8402B58D098
:103E7000402B6FD8302B64D0302B6BD8202B60D0E8
:103E8000202B67D8002B5CD0102B5AD062E07B68C7
:103E900018683B6899683B685A683B68DB6800F0C3
:103EA000CAFA7B681B689B68FB60FB6843F077037A
:103EB000FB607B681B68FA689A604EE07B68186854
:103EC0003B6899683B685A683B68DB6800F0B3FA66
:103ED0007B681B689A687B681B6842F480429A6022
:103EE0003BE07B6818683B6859683B68DB681A46AA
:103EF00000F02AFA7B681B685021184600F081FA0E
:103F00002BE07B6818683B6859683B68DB681A4699
:103F100000F048FA7B681B686021184600F071FACF
:103F20001BE07B6818683B6859683B68DB681A4689
:103F300000F00AFA7B681B684021184600F061FA1D
:103F40000BE07B681A683B681B681946104600F056
:103F500058FA02E000BF00E000BF7B68012283F84E
:103F60003D207B68002283F83C2000231846103750
:103F7000BD4680BD80B485B000AF786039607B6895
:103F80001B68FB607B68294A93420BD07B68B3F1C6
:103F9000804F07D07B68264A934203D07B68254A2E
:103FA000934208D1FB6823F07003FB603B685B68B9
:103FB000FA681343FB607B681C4A93420BD07B6812
:103FC000B3F1804F07D07B68194A934203D07B68D6
:103FD000184A934208D1FB6823F44073FB603B68A6
:103FE000DB68FA681343FB60FB6823F080023B68E0
:103FF0005B691343FB607B68FA681A603B689A68E8
:104000007B68DA623B681A687B689A627B68074A59
:10401000934203D13B681A697B681A637B6801226B
:104020005A6100BF1437BD4680BC7047002C014068
:10403000000400400008004080B487B000AF786002
:1040400039607B681B6A23F001027B681A627B6817
:104050001B6A7B617B685B683B617B689B69FB607B
:10406000FB6823F07003FB60FB6823F00303FB6035
:104070003B681B68FA681343FB607B6923F002030B
:104080007B613B689B687A6913437B617B681C4A50
:1040900093420CD17B6923F008037B613B68DB68AA
:1040A0007A6913437B617B6923F004037B617B683E
:1040B000134A934211D13B6923F480733B613B69FE
:1040C00023F400733B613B685B693A6913433B61CE
:1040D0003B689B693A6913433B617B683A695A6064
:1040E0007B68FA689A613B685A687B685A637B68A8
:1040F0007A691A6200BF1C37BD4680BC704700BF9A
:10410000002C014080B487B000AF786039607B68D4
:104110001B6A23F010027B681A627B681B6A7B6152
:104120007B685B683B617B689B69FB60FB6823F491
:10413000E043FB60FB6823F44073FB603B681B6853
:104140001B02FA681343FB607B6923F020037B6149
:104150003B689B681B017A6913437B617B681D4A3E
:1041600093420DD17B6923F080037B613B68DB6860
:104170001B017A6913437B617B6923F040037B61F8
:104180007B68144A934213D13B6923F480633B61FB
:104190003B6923F400633B613B685B699B003A69C0
:1041A00013433B613B689B699B003A6913433B6146
:1041B0007B683A695A607B68FA689A613B685A681A
:1041C0007B689A637B687A691A6200BF1C37BD46B8
:1041D00080BC7047002C014080B487B000AF78608D
:1041E00039607B681B6A23F480727B681A627B6883
:1041F0001B6A7B617B685B683B617B68DB69FB609A
:10420000FB6823F07003FB60FB6823F00303FB6093
:104210003B681B68FA681343FB607B6923F40073F7
:104220007B613B689B681B027A6913437B617B68F7
:104230001D4A93420DD17B6923F400637B613B6887
:10424000DB681B027A6913437B617B6923F480631B
:104250007B617B68144A934213D13B6923F48053FA
:104260003B613B6923F400533B613B685B691B0185
:104270003A6913433B613B689B691B013A691343ED
:104280003B617B683A695A607B68FA68DA613B682F
:104290005A687B68DA637B687A691A6200BF1C37E8
:1042A000BD4680BC704700BF002C014080B487B081
:1042B00000AF786039607B681B6A23F480527B68AA
:1042C0001A627B681B6A3B617B685B687B617B6809
:1042D000DB69FB60FB6823F4E043FB60FB6823F4CD
:1042E0004073FB603B681B681B02FA681343FB606A
:1042F0003B6923F400533B613B689B681B033A69AD
:1043000013433B617B680F4A934209D17B6923F4D5
:1043100080437B613B685B699B017A6913437B61E6
:104320007B687A695A607B68FA68DA613B685A6828
:104330007B681A647B683A691A6200BF1C37BD4605
:1043400080BC7047002C014080B487B000AFF8609B
:10435000B9607A60FB681B6A7B61FB681B6A23F0AB
:104360000102FB681A62FB689B693B613B6923F0B1
:10437000F0033B617B681B013A6913433B617B6936
:1043800023F00A037B617A69BB6813437B61FB6896
:104390003A699A61FB687A691A6200BF1C37BD46A8
:1043A00080BC704780B487B000AFF860B9607A60B5
:1043B000FB681B6A23F01002FB681A62FB689B69AA
:1043C0007B61FB681B6A3B617B6923F470437B6103
:1043D0007B681B037A6913437B613B6923F0A0036D
:1043E0003B61BB681B013A6913433B61FB687A6917
:1043F0009A61FB683A691A6200BF1C37BD4680BCEF
:10440000704780B485B000AF786039607B689B6886
:10441000FB60FB6823F07003FB603A68FB681343A2
:1044200043F00703FB607B68FA689A6000BF1437AB
:10443000BD4680BC704780B487B000AFF860B960FB
:104440007A603B60FB689B687B617B6923F47F43F8
:104450007B613B681A027B681A43BB6813437A6925
:1044600013437B61FB687A699A6000BF1C37BD46C5
:1044700080BC704780B487B000AFF860B9607A60E4
:10448000BB6803F01F03012202FA03F37B61FB68A0
:104490001A6A7B69DB431A40FB681A62FB681A6A76
:1044A000BB6803F01F03796801FA03F31A43FB6842
:1044B0001A6200BF1C37BD4680BC704780B485B00F
:1044C00000AF786039607B6893F83C30012B01D1F4
:1044D000022346E07B68012283F83C207B680222AD
:1044E00083F83D207B681B685B68FB607B681B680A
:1044F0009B68BB60FB6823F07003FB603B681B6834
:10450000FA681343FB607B681B68FA685A607B6833
:104510001B68164A93420ED07B681B68B3F1804F2C
:1045200009D07B681B68124A934204D07B681B68E1
:10453000104A93420CD1BB6823F08003BB603B68F8
:104540005B68BA681343BB607B681B68BA689A6093
:104550007B68012283F83D207B68002283F83C20A1
:10456000002318461437BD4680BC7047002C01401C
:10457000000400400008004080B582B000AF7860C1
:104580007B68002B01D101233FE07B6893F83D302D
:10459000DBB2002B06D17B68002283F83C207868D0
:1045A000FCF7ACFF7B68242283F83D207B681B6806
:1045B000DA687B681B6822F40052DA60786800F0E1
:1045C00029F87B681B681A697B681B6822F4904293
:1045D0001A617B681B685A697B681B6822F02A0293
:1045E0005A617B681B68DA687B681B6842F400527A
:1045F000DA607B6800221A647B68202283F83D2001
:104600007B68202283F83E20002318460837BD46E9
:1046100080BD000080B584B000AF78607B681B6807
:104620001B6923F440517B68DA687B681B680A4386
:104630001A617B689A687B681B691A437B685B69AF
:104640001343BB607B681B68DB6823F4B05323F023
:104650000C037A681268B9680B43D3607B681B68E7
:104660005B6923F440717B689A697B681B680A4325
:104670005A617B681B682C4A934203D1FEF772FE95
:10468000F86002E0FEF75AFEF860FA6813469B00F5
:1046900013449A001A447B685B689B00B2FBF3F3F7
:1046A000224AA2FB03235B091901FA6813469B0007
:1046B00013449A001A447B685B689B00B2FBF3F2D8
:1046C0001A4BA3FB02035B09642000FB03F3D31A1C
:1046D0001B013233154AA2FB03235B0903F0F003ED
:1046E0001944FA6813469B0013449A001A447B68E5
:1046F0005B689B00B2FBF3F20C4BA3FB02035B096C
:10470000642000FB03F3D31A1B013233074AA2FBD8
:1047100003235B0903F00F027B681B680A449A605D
:1047200000BF1037BD4680BD003801401F85EB51EA
:1047300080B582B000AF78607B685B6CD3E9002302
:104740007968C1E914237B689B6CD3E900017B681D
:104750001B6CD3E90023FBF7FFFC02460B4679688C
:10476000C1E916237B68D3E914017B68D3E91A23D6
:10477000FCF73AF90346002B06D07B68D3E91A23ED
:104780007968C1E9142311E07B68D3E914017B68DF
:10479000D3E91823FCF70AF90346002B00D105E002
:1047A0007B68D3E918237968C1E9142300BF08376F
:1047B000BD4680BD0000000080B58AB006AFF8603D
:1047C000B9607A603B60FB687A685A64FB68BA68D3
:1047D0001A64FB683A689A64FB6800225A701AA34C
:1047E000D3E90023CDE900234FF000024FF000038E
:1047F000F86800F036F9FB680A229A6097F83430BE
:104800001946F86800F044FA97F830300493D7E975
:104810000A23CDE90223D7E90823CDE90023D7E90C
:104820000623F86800F08CF9FCF7BAFC03461A4638
:10483000FB689B68D21AFB685A6000BF1037BD4600
:1048400080BD00BFAFF300800000000000E06F40BB
:10485000B0B58CB000AF78607B685B78002B01D17D
:104860000023DCE0FCF79CFC03467B627B685B6812
:104870007A6AD31A3B627B689B683A6A9A42C0F0B4
:10488000CD807B681B6CD3E90023C7E906237B68D6
:104890009B6CD3E90001D7E90623FBF75DFC0246D8
:1048A0000B46C7E904237B68D3E91623D7E9040143
:1048B000FBF752FC02460B46C7E902237B68D3E9AB
:1048C00014457B68D3E90C01D7E90423FBF7FCFD11
:1048D00002460B4620462946FBF740FC02460B46A3
:1048E0007968C1E914237B681B78002B14D17B689D
:1048F000D3E914457B68D3E90A01D7E90223FBF722
:10490000E3FD02460B4620462946FBF725FC0246FE
:104910000B467968C1E914237B68D3E914017B68ED
:10492000D3E91A23FCF760F80346002B06D07B6816
:10493000D3E91A237968C1E9142310E07B68D3E92D
:1049400014017B68D3E91823FCF730F80346002BE9
:1049500005D07B68D3E918237968C1E914237B6803
:104960001B78002B0BD07B68D3E90A23D7E904011D
:10497000FBF7AAFD02460B46C7E90A2305E04FF004
:1049800000024FF00003C7E90A237B68D3E914450E
:104990007B68D3E90E01D7E90223FBF795FD0246B8
:1049A0000B4620462946FBF7D9FB02460B46D7E9C2
:1049B0000A01FBF7D3FB02460B46C7E90A237B68D3
:1049C000D3E91A23D7E90A01FCF70EF80346002BB6
:1049D00005D07B68D3E91A23C7E90A230EE07B6878
:1049E000D3E91823D7E90A01FBF7E0FF0346002BC0
:1049F00004D07B68D3E91823C7E90A237B68596C84
:104A0000D7E90A23C1E900237968D7E90423C1E97A
:104A100016237B687A6A5A60012300E00023184657
:104A20003037BD46B0BD80B584B000AF78600B466E
:104A3000FB70FB78012B0CBF01230023DBB2FB735F
:104A4000FB7B002B06D07B685B78002B02D178685B
:104A5000FFF76EFE7B68FA7B5A7000BF1037BD46C9
:104A600080BD80B584B000AFF860C7E90023D7E906
:104A70000623D7E90001FBF7ADFF0346002B58D111
:104A8000F968D7E90023C1E91823F968D7E90623B3
:104A9000C1E91A23FB685B78002B4BD0FB685B6C89
:104AA000D3E90001FB68D3E91A23FBF79DFF034616
:104AB000002B07D0FB68596CFB68D3E91A23C1E9C6
:104AC000002312E0FB685B6CD3E90001FB68D3E9CB
:104AD0001823FBF76BFF0346002B06D0FB68596CCD
:104AE000FB68D3E91823C1E90023FB68D3E914016B
:104AF000FB68D3E91A23FBF777FF0346002B06D0A8
:104B0000FB68D3E91A23F968C1E9142312E0FB68B2
:104B1000D3E91401FB68D3E91823FBF747FF0346E9
:104B2000002B07D0FB68D3E91823F968C1E91423E7
:104B300000E000BF1037BD4680BD0000000000004F
:104B400080B586B000AFF860C7E900234FF00002DF
:104B50004FF00003D7E90001FBF728FF0346002BC5
:104B600040F08B804FF000024FF00003D7E90801BE
:104B7000FBF71CFF0346002B7FD14FF000024FF0E4
:104B80000003D7E90A01FBF711FF0346002B74D19C
:104B9000FB6897F830209A7097F83030012B0CBFE3
:104BA00001230023DBB21A46FB681A70F968D7E9C3
:104BB0000023C1E90423F968D7E90823C1E90623E2
:104BC000F968D7E90A23C1E90823FB689B681846FE
:104BD000FBF700FC2CA3D3E90023FBF79FFD024663
:104BE0000B46C7E90423F968D7E90023C1E90A2382
:104BF000D7E90423D7E90801FBF766FC02460B4618
:104C0000F968C1E90C23D7E90423D7E90A01FBF7C6
:104C100085FD02460B46F968C1E90E23FB68DB7887
:104C2000012B2BD1FB68D3E90A234FF000004FF092
:104C30000001FBF791FA02460B46F968C1E90A2325
:104C4000FB68D3E90C234FF000004FF00001FBF7A5
:104C500083FA02460B46F968C1E90C23FB68D3E9E5
:104C60000E234FF000004FF00001FBF775FA0246EB
:104C70000B46F968C1E90E2300E000BF1837BD46B6
:104C800080BD00BFAFF300800000000080842E4193
:104C900080B582B000AF78600B46FB707B685B78B4
:104CA000002B2ED07B68DB78FA789A4229D07B687B
:104CB000D3E90A234FF000004FF00001FBF74CFA54
:104CC00002460B467968C1E90A237B68D3E90C23C5
:104CD0004FF000004FF00001FBF73EFA02460B4692
:104CE0007968C1E90C237B68D3E90E234FF00000FB
:104CF0004FF00001FBF730FA02460B467968C1E934
:104D00000E237B68FA78DA7000BF0837BD4680BD95
:104D1000B0B584B000AF786039603B68002B2EDD01
:104D20003868FBF767FB04460D467B689B681846AE
:104D3000FBF750FB02460B4620462946FBF7EEFCEC
:104D400002460B46C7E902237B68D3E90C01D7E989
:104D50000223FBF7B9FB02460B467968C1E90C2335
:104D60007B68D3E90E01D7E90223FBF7D7FC0246A3
:104D70000B467968C1E90E233A687B689A6000BFE8
:104D80001037BD46B0BD000070B500260C4D0D4C6F
:104D9000641BA410A64209D100F022F800260A4D97
:104DA0000A4C641BA410A64205D170BD55F8043B03
:104DB00098470136EEE755F8043B98470136F2E78D
:104DC000304E0008304E0008304E0008344E0008C7
:104DD00003460244934200D1704703F8011BF9E7F0
:104DE000F8B500BFF8BC08BC9E467047F8B500BFD8
:084DF000F8BC08BC9E467047A8
:104DF80002030405060708090A0B0C0D0E0F101014
:104E080002030405060708090A0B0C0D0E0F101003
:104E18000000000000000000010203040607080962
:084E2800000000000102030478
:044E30003501000840
:044E34001101000860
:104E3800B81E85EB51B8EE3F000000000018654031
:104E48009A9999999999E93F0024F4001000000073
:044E58000100000055
:0400000508001605D4
:00000001FF
